{
  "_format": "hh-sol-artifact-1",
  "contractName": "BatchProcessor",
  "sourceName": "src/backend/contracts/BatchProcessor.sol",
  "abi": [
    {
      "inputs": [],
      "stateMutability": "nonpayable",
      "type": "constructor"
    },
    {
      "anonymous": false,
      "inputs": [
        {
          "indexed": false,
          "internalType": "uint256",
          "name": "batchId",
          "type": "uint256"
        },
        {
          "indexed": false,
          "internalType": "bytes32",
          "name": "newStateRoot",
          "type": "bytes32"
        }
      ],
      "name": "BatchProcessed",
      "type": "event"
    },
    {
      "inputs": [],
      "name": "batchNonce",
      "outputs": [
        {
          "internalType": "uint256",
          "name": "",
          "type": "uint256"
        }
      ],
      "stateMutability": "view",
      "type": "function"
    },
    {
      "inputs": [
        {
          "internalType": "address",
          "name": "",
          "type": "address"
        }
      ],
      "name": "lastProcessedBatch",
      "outputs": [
        {
          "internalType": "uint256",
          "name": "",
          "type": "uint256"
        }
      ],
      "stateMutability": "view",
      "type": "function"
    },
    {
      "inputs": [],
      "name": "operator",
      "outputs": [
        {
          "internalType": "address",
          "name": "",
          "type": "address"
        }
      ],
      "stateMutability": "view",
      "type": "function"
    },
    {
      "inputs": [
        {
          "internalType": "bytes32",
          "name": "_newStateRoot",
          "type": "bytes32"
        },
        {
          "internalType": "bytes",
          "name": "_signature",
          "type": "bytes"
        }
      ],
      "name": "processBatch",
      "outputs": [],
      "stateMutability": "nonpayable",
      "type": "function"
    },
    {
      "inputs": [],
      "name": "stateRoot",
      "outputs": [
        {
          "internalType": "bytes32",
          "name": "",
          "type": "bytes32"
        }
      ],
      "stateMutability": "view",
      "type": "function"
    },
    {
      "inputs": [
        {
          "internalType": "bytes32[]",
          "name": "_proof",
          "type": "bytes32[]"
        },
        {
          "internalType": "bytes32",
          "name": "_leaf",
          "type": "bytes32"
        }
      ],
      "name": "verifyInclusion",
      "outputs": [
        {
          "internalType": "bool",
          "name": "",
          "type": "bool"
        }
      ],
      "stateMutability": "view",
      "type": "function"
    }
  ],
  "bytecode": "0x608060405234801561001057600080fd5b50336000806101000a81548173ffffffffffffffffffffffffffffffffffffffff021916908373ffffffffffffffffffffffffffffffffffffffff1602179055506112bd806100606000396000f3fe608060405234801561001057600080fd5b50600436106100625760003560e01c8063186393ab14610067578063570ca735146100975780639588eca2146100b5578063c75f3cb6146100d3578063d63f5985146100f1578063f353313714610121575b600080fd5b610081600480360381019061007c9190610b0f565b61013d565b60405161008e9190610dc6565b60405180910390f35b61009f610156565b6040516100ac9190610dab565b60405180910390f35b6100bd61017a565b6040516100ca9190610de1565b60405180910390f35b6100db610180565b6040516100e89190610f01565b60405180910390f35b61010b60048036038101906101069190610ae6565b610186565b6040516101189190610f01565b60405180910390f35b61013b60048036038101906101369190610b67565b61019e565b005b600061014d8484600154856103b3565b90509392505050565b60008054906101000a900473ffffffffffffffffffffffffffffffffffffffff1681565b60015481565b60025481565b60036020528060005260406000206000915090505481565b60008054906101000a900473ffffffffffffffffffffffffffffffffffffffff1673ffffffffffffffffffffffffffffffffffffffff163373ffffffffffffffffffffffffffffffffffffffff161461022c576040517f08c379a000000000000000000000000000000000000000000000000000000000815260040161022390610e61565b60405180910390fd5b600060025484604051602001610243929190610d7f565b604051602081830303815290604052805190602001209050600061026682610491565b905060006102c185858080601f016020809104026020016040519081016040528093929190818152602001838380828437600081840152601f19601f82011690508083019250505050505050836104c190919063ffffffff16565b905060008054906101000a900473ffffffffffffffffffffffffffffffffffffffff1673ffffffffffffffffffffffffffffffffffffffff168173ffffffffffffffffffffffffffffffffffffffff1614610351576040517f08c379a000000000000000000000000000000000000000000000000000000000815260040161034890610ee1565b60405180910390fd5b856001819055506002600081548092919061036b90611016565b91905055507f40b0ad4be8223421065f591c3fca791d5dc1d96177f9abb7f0fc500b1a266aa6600254876040516103a3929190610f1c565b60405180910390a1505050505050565b60008082905060005b86869050811015610482576000878783818110610402577f4e487b7100000000000000000000000000000000000000000000000000000000600052603260045260246000fd5b905060200201359050808311610442578281604051602001610425929190610d2d565b60405160208183030381529060405280519060200120925061046e565b8083604051602001610455929190610d2d565b6040516020818303038152906040528051906020012092505b50808061047a90611016565b9150506103bc565b50838114915050949350505050565b6000816040516020016104a49190610d59565b604051602081830303815290604052805190602001209050919050565b60008060006104d085856104e8565b915091506104dd8161056b565b819250505092915050565b60008060418351141561052a5760008060006020860151925060408601519150606086015160001a905061051e878285856108bc565b94509450505050610564565b60408351141561055b5760008060208501519150604085015190506105508683836109c9565b935093505050610564565b60006002915091505b9250929050565b600060048111156105a5577f4e487b7100000000000000000000000000000000000000000000000000000000600052602160045260246000fd5b8160048111156105de577f4e487b7100000000000000000000000000000000000000000000000000000000600052602160045260246000fd5b14156105e9576108b9565b60016004811115610623577f4e487b7100000000000000000000000000000000000000000000000000000000600052602160045260246000fd5b81600481111561065c577f4e487b7100000000000000000000000000000000000000000000000000000000600052602160045260246000fd5b141561069d576040517f08c379a000000000000000000000000000000000000000000000000000000000815260040161069490610e41565b60405180910390fd5b600260048111156106d7577f4e487b7100000000000000000000000000000000000000000000000000000000600052602160045260246000fd5b816004811115610710577f4e487b7100000000000000000000000000000000000000000000000000000000600052602160045260246000fd5b1415610751576040517f08c379a000000000000000000000000000000000000000000000000000000000815260040161074890610e81565b60405180910390fd5b6003600481111561078b577f4e487b7100000000000000000000000000000000000000000000000000000000600052602160045260246000fd5b8160048111156107c4577f4e487b7100000000000000000000000000000000000000000000000000000000600052602160045260246000fd5b1415610805576040517f08c379a00000000000000000000000000000000000000000000000000000000081526004016107fc90610ea1565b60405180910390fd5b60048081111561083e577f4e487b7100000000000000000000000000000000000000000000000000000000600052602160045260246000fd5b816004811115610877577f4e487b7100000000000000000000000000000000000000000000000000000000600052602160045260246000fd5b14156108b8576040517f08c379a00000000000000000000000000000000000000000000000000000000081526004016108af90610ec1565b60405180910390fd5b5b50565b6000807f7fffffffffffffffffffffffffffffff5d576e7357a4501ddfe92f46681b20a08360001c11156108f75760006003915091506109c0565b601b8560ff161415801561090f5750601c8560ff1614155b156109215760006004915091506109c0565b6000600187878787604051600081526020016040526040516109469493929190610dfc565b6020604051602081039080840390855afa158015610968573d6000803e3d6000fd5b505050602060405103519050600073ffffffffffffffffffffffffffffffffffffffff168173ffffffffffffffffffffffffffffffffffffffff1614156109b7576000600192509250506109c0565b80600092509250505b94509492505050565b60008060007f7fffffffffffffffffffffffffffffffffffffffffffffffffffffffffffffff60001b841690506000601b60ff8660001c901c610a0c9190610f61565b9050610a1a878288856108bc565b935093505050935093915050565b600081359050610a3781611259565b92915050565b60008083601f840112610a4f57600080fd5b8235905067ffffffffffffffff811115610a6857600080fd5b602083019150836020820283011115610a8057600080fd5b9250929050565b600081359050610a9681611270565b92915050565b60008083601f840112610aae57600080fd5b8235905067ffffffffffffffff811115610ac757600080fd5b602083019150836001820283011115610adf57600080fd5b9250929050565b600060208284031215610af857600080fd5b6000610b0684828501610a28565b91505092915050565b600080600060408486031215610b2457600080fd5b600084013567ffffffffffffffff811115610b3e57600080fd5b610b4a86828701610a3d565b93509350506020610b5d86828701610a87565b9150509250925092565b600080600060408486031215610b7c57600080fd5b6000610b8a86828701610a87565b935050602084013567ffffffffffffffff811115610ba757600080fd5b610bb386828701610a9c565b92509250509250925092565b610bc881610fb7565b82525050565b610bd781610fc9565b82525050565b610be681610fd5565b82525050565b610bfd610bf882610fd5565b61105f565b82525050565b6000610c10601883610f45565b9150610c1b826110a2565b602082019050919050565b6000610c33602a83610f45565b9150610c3e826110cb565b604082019050919050565b6000610c56601f83610f45565b9150610c618261111a565b602082019050919050565b6000610c79601c83610f56565b9150610c8482611143565b601c82019050919050565b6000610c9c602283610f45565b9150610ca78261116c565b604082019050919050565b6000610cbf602283610f45565b9150610cca826111bb565b604082019050919050565b6000610ce2602183610f45565b9150610ced8261120a565b604082019050919050565b610d0181610fff565b82525050565b610d18610d1382610fff565b611069565b82525050565b610d2781611009565b82525050565b6000610d398285610bec565b602082019150610d498284610bec565b6020820191508190509392505050565b6000610d6482610c6c565b9150610d708284610bec565b60208201915081905092915050565b6000610d8b8285610d07565b602082019150610d9b8284610bec565b6020820191508190509392505050565b6000602082019050610dc06000830184610bbf565b92915050565b6000602082019050610ddb6000830184610bce565b92915050565b6000602082019050610df66000830184610bdd565b92915050565b6000608082019050610e116000830187610bdd565b610e1e6020830186610d1e565b610e2b6040830185610bdd565b610e386060830184610bdd565b95945050505050565b60006020820190508181036000830152610e5a81610c03565b9050919050565b60006020820190508181036000830152610e7a81610c26565b9050919050565b60006020820190508181036000830152610e9a81610c49565b9050919050565b60006020820190508181036000830152610eba81610c8f565b9050919050565b60006020820190508181036000830152610eda81610cb2565b9050919050565b60006020820190508181036000830152610efa81610cd5565b9050919050565b6000602082019050610f166000830184610cf8565b92915050565b6000604082019050610f316000830185610cf8565b610f3e6020830184610bdd565b9392505050565b600082825260208201905092915050565b600081905092915050565b6000610f6c82610fff565b9150610f7783610fff565b9250827fffffffffffffffffffffffffffffffffffffffffffffffffffffffffffffffff03821115610fac57610fab611073565b5b828201905092915050565b6000610fc282610fdf565b9050919050565b60008115159050919050565b6000819050919050565b600073ffffffffffffffffffffffffffffffffffffffff82169050919050565b6000819050919050565b600060ff82169050919050565b600061102182610fff565b91507fffffffffffffffffffffffffffffffffffffffffffffffffffffffffffffffff82141561105457611053611073565b5b600182019050919050565b6000819050919050565b6000819050919050565b7f4e487b7100000000000000000000000000000000000000000000000000000000600052601160045260246000fd5b7f45434453413a20696e76616c6964207369676e61747572650000000000000000600082015250565b7f426174636850726f636573736f723a2063616c6c6572206973206e6f7420746860008201527f65206f70657261746f7200000000000000000000000000000000000000000000602082015250565b7f45434453413a20696e76616c6964207369676e6174757265206c656e67746800600082015250565b7f19457468657265756d205369676e6564204d6573736167653a0a333200000000600082015250565b7f45434453413a20696e76616c6964207369676e6174757265202773272076616c60008201527f7565000000000000000000000000000000000000000000000000000000000000602082015250565b7f45434453413a20696e76616c6964207369676e6174757265202776272076616c60008201527f7565000000000000000000000000000000000000000000000000000000000000602082015250565b7f426174636850726f636573736f723a20696e76616c6964207369676e6174757260008201527f6500000000000000000000000000000000000000000000000000000000000000602082015250565b61126281610fb7565b811461126d57600080fd5b50565b61127981610fd5565b811461128457600080fd5b5056fea2646970667358221220e05709d1d6f6fa98a979239e6706d36c06454ef905dea2f85978204c6d44618164736f6c63430008040033",
  "linkReferences": {},
  "deployedLinkReferences": {}
}