{
  "_format": "hh-sol-artifact-1",
  "contractName": "EnhancedNFT",
  "sourceName": "src/backend/contracts/EnhancedNFT.sol",
  "abi": [
    {
      "inputs": [],
      "stateMutability": "nonpayable",
      "type": "constructor"
    },
    {
      "anonymous": false,
      "inputs": [
        {
          "indexed": true,
          "internalType": "address",
          "name": "owner",
          "type": "address"
        },
        {
          "indexed": true,
          "internalType": "address",
          "name": "approved",
          "type": "address"
        },
        {
          "indexed": true,
          "internalType": "uint256",
          "name": "tokenId",
          "type": "uint256"
        }
      ],
      "name": "Approval",
      "type": "event"
    },
    {
      "anonymous": false,
      "inputs": [
        {
          "indexed": true,
          "internalType": "address",
          "name": "owner",
          "type": "address"
        },
        {
          "indexed": true,
          "internalType": "address",
          "name": "operator",
          "type": "address"
        },
        {
          "indexed": false,
          "internalType": "bool",
          "name": "approved",
          "type": "bool"
        }
      ],
      "name": "ApprovalForAll",
      "type": "event"
    },
    {
      "anonymous": false,
      "inputs": [
        {
          "indexed": false,
          "internalType": "uint256",
          "name": "fromTokenId",
          "type": "uint256"
        },
        {
          "indexed": false,
          "internalType": "uint256",
          "name": "toTokenId",
          "type": "uint256"
        }
      ],
      "name": "BatchMinted",
      "type": "event"
    },
    {
      "anonymous": false,
      "inputs": [
        {
          "indexed": true,
          "internalType": "address",
          "name": "from",
          "type": "address"
        },
        {
          "indexed": true,
          "internalType": "address",
          "name": "to",
          "type": "address"
        },
        {
          "indexed": true,
          "internalType": "uint256",
          "name": "tokenId",
          "type": "uint256"
        }
      ],
      "name": "Transfer",
      "type": "event"
    },
    {
      "inputs": [
        {
          "internalType": "address",
          "name": "to",
          "type": "address"
        },
        {
          "internalType": "uint256",
          "name": "tokenId",
          "type": "uint256"
        }
      ],
      "name": "approve",
      "outputs": [],
      "stateMutability": "nonpayable",
      "type": "function"
    },
    {
      "inputs": [
        {
          "internalType": "address",
          "name": "owner",
          "type": "address"
        }
      ],
      "name": "balanceOf",
      "outputs": [
        {
          "internalType": "uint256",
          "name": "",
          "type": "uint256"
        }
      ],
      "stateMutability": "view",
      "type": "function"
    },
    {
      "inputs": [
        {
          "components": [
            {
              "internalType": "address",
              "name": "recipient",
              "type": "address"
            },
            {
              "internalType": "string",
              "name": "tokenURI",
              "type": "string"
            }
          ],
          "internalType": "struct EnhancedNFT.BatchMintItem[]",
          "name": "_items",
          "type": "tuple[]"
        }
      ],
      "name": "batchMint",
      "outputs": [
        {
          "internalType": "uint256[]",
          "name": "",
          "type": "uint256[]"
        }
      ],
      "stateMutability": "nonpayable",
      "type": "function"
    },
    {
      "inputs": [
        {
          "internalType": "uint256",
          "name": "tokenId",
          "type": "uint256"
        }
      ],
      "name": "getApproved",
      "outputs": [
        {
          "internalType": "address",
          "name": "",
          "type": "address"
        }
      ],
      "stateMutability": "view",
      "type": "function"
    },
    {
      "inputs": [
        {
          "internalType": "address",
          "name": "owner",
          "type": "address"
        },
        {
          "internalType": "address",
          "name": "operator",
          "type": "address"
        }
      ],
      "name": "isApprovedForAll",
      "outputs": [
        {
          "internalType": "bool",
          "name": "",
          "type": "bool"
        }
      ],
      "stateMutability": "view",
      "type": "function"
    },
    {
      "inputs": [
        {
          "internalType": "string",
          "name": "_tokenURI",
          "type": "string"
        }
      ],
      "name": "mint",
      "outputs": [
        {
          "internalType": "uint256",
          "name": "",
          "type": "uint256"
        }
      ],
      "stateMutability": "nonpayable",
      "type": "function"
    },
    {
      "inputs": [
        {
          "internalType": "string",
          "name": "_tokenURI",
          "type": "string"
        },
        {
          "internalType": "address",
          "name": "marketplaceAddress",
          "type": "address"
        }
      ],
      "name": "mintAndApprove",
      "outputs": [
        {
          "internalType": "uint256",
          "name": "",
          "type": "uint256"
        }
      ],
      "stateMutability": "nonpayable",
      "type": "function"
    },
    {
      "inputs": [],
      "name": "name",
      "outputs": [
        {
          "internalType": "string",
          "name": "",
          "type": "string"
        }
      ],
      "stateMutability": "view",
      "type": "function"
    },
    {
      "inputs": [],
      "name": "operator",
      "outputs": [
        {
          "internalType": "address",
          "name": "",
          "type": "address"
        }
      ],
      "stateMutability": "view",
      "type": "function"
    },
    {
      "inputs": [
        {
          "internalType": "uint256",
          "name": "tokenId",
          "type": "uint256"
        }
      ],
      "name": "ownerOf",
      "outputs": [
        {
          "internalType": "address",
          "name": "",
          "type": "address"
        }
      ],
      "stateMutability": "view",
      "type": "function"
    },
    {
      "inputs": [
        {
          "internalType": "address",
          "name": "from",
          "type": "address"
        },
        {
          "internalType": "address",
          "name": "to",
          "type": "address"
        },
        {
          "internalType": "uint256",
          "name": "tokenId",
          "type": "uint256"
        }
      ],
      "name": "safeTransferFrom",
      "outputs": [],
      "stateMutability": "nonpayable",
      "type": "function"
    },
    {
      "inputs": [
        {
          "internalType": "address",
          "name": "from",
          "type": "address"
        },
        {
          "internalType": "address",
          "name": "to",
          "type": "address"
        },
        {
          "internalType": "uint256",
          "name": "tokenId",
          "type": "uint256"
        },
        {
          "internalType": "bytes",
          "name": "_data",
          "type": "bytes"
        }
      ],
      "name": "safeTransferFrom",
      "outputs": [],
      "stateMutability": "nonpayable",
      "type": "function"
    },
    {
      "inputs": [
        {
          "internalType": "address",
          "name": "operator",
          "type": "address"
        },
        {
          "internalType": "bool",
          "name": "approved",
          "type": "bool"
        }
      ],
      "name": "setApprovalForAll",
      "outputs": [],
      "stateMutability": "nonpayable",
      "type": "function"
    },
    {
      "inputs": [
        {
          "internalType": "address",
          "name": "_newOperator",
          "type": "address"
        }
      ],
      "name": "setOperator",
      "outputs": [],
      "stateMutability": "nonpayable",
      "type": "function"
    },
    {
      "inputs": [
        {
          "internalType": "bytes4",
          "name": "interfaceId",
          "type": "bytes4"
        }
      ],
      "name": "supportsInterface",
      "outputs": [
        {
          "internalType": "bool",
          "name": "",
          "type": "bool"
        }
      ],
      "stateMutability": "view",
      "type": "function"
    },
    {
      "inputs": [],
      "name": "symbol",
      "outputs": [
        {
          "internalType": "string",
          "name": "",
          "type": "string"
        }
      ],
      "stateMutability": "view",
      "type": "function"
    },
    {
      "inputs": [],
      "name": "tokenCount",
      "outputs": [
        {
          "internalType": "uint256",
          "name": "",
          "type": "uint256"
        }
      ],
      "stateMutability": "view",
      "type": "function"
    },
    {
      "inputs": [
        {
          "internalType": "uint256",
          "name": "tokenId",
          "type": "uint256"
        }
      ],
      "name": "tokenURI",
      "outputs": [
        {
          "internalType": "string",
          "name": "",
          "type": "string"
        }
      ],
      "stateMutability": "view",
      "type": "function"
    },
    {
      "inputs": [
        {
          "internalType": "address",
          "name": "from",
          "type": "address"
        },
        {
          "internalType": "address",
          "name": "to",
          "type": "address"
        },
        {
          "internalType": "uint256",
          "name": "tokenId",
          "type": "uint256"
        }
      ],
      "name": "transferFrom",
      "outputs": [],
      "stateMutability": "nonpayable",
      "type": "function"
    }
  ],
  "bytecode": "0x60806040523480156200001157600080fd5b506040518060400160405280600981526020017f4e45585553204e465400000000000000000000000000000000000000000000008152506040518060400160405280600581526020017f4e45585553000000000000000000000000000000000000000000000000000000815250816000908051906020019062000096929190620000f9565b508060019080519060200190620000af929190620000f9565b50505033600860006101000a81548173ffffffffffffffffffffffffffffffffffffffff021916908373ffffffffffffffffffffffffffffffffffffffff1602179055506200020e565b8280546200010790620001a9565b90600052602060002090601f0160209004810192826200012b576000855562000177565b82601f106200014657805160ff191683800117855562000177565b8280016001018555821562000177579182015b828111156200017657825182559160200191906001019062000159565b5b5090506200018691906200018a565b5090565b5b80821115620001a55760008160009055506001016200018b565b5090565b60006002820490506001821680620001c257607f821691505b60208210811415620001d957620001d8620001df565b5b50919050565b7f4e487b7100000000000000000000000000000000000000000000000000000000600052602260045260246000fd5b613403806200021e6000396000f3fe608060405234801561001057600080fd5b50600436106101215760003560e01c806370a08231116100ad578063b88d4fde11610071578063b88d4fde1461031a578063c87b56dd14610336578063d85d3d2714610366578063e985e9c514610396578063f70bf70f146103c657610121565b806370a082311461027657806395d89b41146102a65780639f181b5e146102c4578063a22cb465146102e2578063b3ab15fb146102fe57610121565b806323b872dd116100f457806323b872dd146101c057806342842e0e146101dc578063570ca735146101f85780636352211e146102165780636933e79a1461024657610121565b806301ffc9a71461012657806306fdde0314610156578063081812fc14610174578063095ea7b3146101a4575b600080fd5b610140600480360381019061013b9190612205565b6103f6565b60405161014d919061276a565b60405180910390f35b61015e6104d8565b60405161016b9190612785565b60405180910390f35b61018e600480360381019061018991906122ec565b61056a565b60405161019b91906126e1565b60405180910390f35b6101be60048036038101906101b99190612184565b6105ef565b005b6101da60048036038101906101d5919061207e565b610707565b005b6101f660048036038101906101f1919061207e565b610767565b005b610200610787565b60405161020d91906126e1565b60405180910390f35b610230600480360381019061022b91906122ec565b6107ad565b60405161023d91906126e1565b60405180910390f35b610260600480360381019061025b9190612298565b61085f565b60405161026d91906129c7565b60405180910390f35b610290600480360381019061028b9190612019565b6108a7565b60405161029d91906129c7565b60405180910390f35b6102ae61095f565b6040516102bb9190612785565b60405180910390f35b6102cc6109f1565b6040516102d991906129c7565b60405180910390f35b6102fc60048036038101906102f79190612148565b6109f7565b005b61031860048036038101906103139190612019565b610a0d565b005b610334600480360381019061032f91906120cd565b610ae1565b005b610350600480360381019061034b91906122ec565b610b43565b60405161035d9190612785565b60405180910390f35b610380600480360381019061037b9190612257565b610c95565b60405161038d91906129c7565b60405180910390f35b6103b060048036038101906103ab9190612042565b610cd1565b6040516103bd919061276a565b60405180910390f35b6103e060048036038101906103db91906121c0565b610d65565b6040516103ed9190612748565b60405180910390f35b60007f80ac58cd000000000000000000000000000000000000000000000000000000007bffffffffffffffffffffffffffffffffffffffffffffffffffffffff1916827bffffffffffffffffffffffffffffffffffffffffffffffffffffffff191614806104c157507f5b5e139f000000000000000000000000000000000000000000000000000000007bffffffffffffffffffffffffffffffffffffffffffffffffffffffff1916827bffffffffffffffffffffffffffffffffffffffffffffffffffffffff1916145b806104d157506104d082611058565b5b9050919050565b6060600080546104e790612cfa565b80601f016020809104026020016040519081016040528092919081815260200182805461051390612cfa565b80156105605780601f1061053557610100808354040283529160200191610560565b820191906000526020600020905b81548152906001019060200180831161054357829003601f168201915b5050505050905090565b6000610575826110c2565b6105b4576040517f08c379a00000000000000000000000000000000000000000000000000000000081526004016105ab90612927565b60405180910390fd5b6004600083815260200190815260200160002060009054906101000a900473ffffffffffffffffffffffffffffffffffffffff169050919050565b60006105fa826107ad565b90508073ffffffffffffffffffffffffffffffffffffffff168373ffffffffffffffffffffffffffffffffffffffff16141561066b576040517f08c379a000000000000000000000000000000000000000000000000000000000815260040161066290612967565b60405180910390fd5b8073ffffffffffffffffffffffffffffffffffffffff1661068a61112e565b73ffffffffffffffffffffffffffffffffffffffff1614806106b957506106b8816106b361112e565b610cd1565b5b6106f8576040517f08c379a00000000000000000000000000000000000000000000000000000000081526004016106ef90612867565b60405180910390fd5b6107028383611136565b505050565b61071861071261112e565b826111ef565b610757576040517f08c379a000000000000000000000000000000000000000000000000000000000815260040161074e90612987565b60405180910390fd5b6107628383836112cd565b505050565b61078283838360405180602001604052806000815250610ae1565b505050565b600860009054906101000a900473ffffffffffffffffffffffffffffffffffffffff1681565b6000806002600084815260200190815260200160002060009054906101000a900473ffffffffffffffffffffffffffffffffffffffff169050600073ffffffffffffffffffffffffffffffffffffffff168173ffffffffffffffffffffffffffffffffffffffff161415610856576040517f08c379a000000000000000000000000000000000000000000000000000000000815260040161084d906128a7565b60405180910390fd5b80915050919050565b60006007600081548092919061087490612d5d565b919050555061088533600754611534565b61089160075484611552565b61089c8260016109f7565b600754905092915050565b60008073ffffffffffffffffffffffffffffffffffffffff168273ffffffffffffffffffffffffffffffffffffffff161415610918576040517f08c379a000000000000000000000000000000000000000000000000000000000815260040161090f90612887565b60405180910390fd5b600360008373ffffffffffffffffffffffffffffffffffffffff1673ffffffffffffffffffffffffffffffffffffffff168152602001908152602001600020549050919050565b60606001805461096e90612cfa565b80601f016020809104026020016040519081016040528092919081815260200182805461099a90612cfa565b80156109e75780601f106109bc576101008083540402835291602001916109e7565b820191906000526020600020905b8154815290600101906020018083116109ca57829003601f168201915b5050505050905090565b60075481565b610a09610a0261112e565b83836115c6565b5050565b600860009054906101000a900473ffffffffffffffffffffffffffffffffffffffff1673ffffffffffffffffffffffffffffffffffffffff163373ffffffffffffffffffffffffffffffffffffffff1614610a9d576040517f08c379a0000000000000000000000000000000000000000000000000000000008152600401610a94906129a7565b60405180910390fd5b80600860006101000a81548173ffffffffffffffffffffffffffffffffffffffff021916908373ffffffffffffffffffffffffffffffffffffffff16021790555050565b610af2610aec61112e565b836111ef565b610b31576040517f08c379a0000000000000000000000000000000000000000000000000000000008152600401610b2890612987565b60405180910390fd5b610b3d84848484611733565b50505050565b6060610b4e826110c2565b610b8d576040517f08c379a0000000000000000000000000000000000000000000000000000000008152600401610b8490612907565b60405180910390fd5b6000600660008481526020019081526020016000208054610bad90612cfa565b80601f0160208091040260200160405190810160405280929190818152602001828054610bd990612cfa565b8015610c265780601f10610bfb57610100808354040283529160200191610c26565b820191906000526020600020905b815481529060010190602001808311610c0957829003601f168201915b505050505090506000610c3761178f565b9050600081511415610c4d578192505050610c90565b600082511115610c82578082604051602001610c6a9291906126bd565b60405160208183030381529060405292505050610c90565b610c8b846117a6565b925050505b919050565b600060076000815480929190610caa90612d5d565b9190505550610cbb33600754611534565b610cc760075483611552565b6007549050919050565b6000600560008473ffffffffffffffffffffffffffffffffffffffff1673ffffffffffffffffffffffffffffffffffffffff16815260200190815260200160002060008373ffffffffffffffffffffffffffffffffffffffff1673ffffffffffffffffffffffffffffffffffffffff16815260200190815260200160002060009054906101000a900460ff16905092915050565b6060600860009054906101000a900473ffffffffffffffffffffffffffffffffffffffff1673ffffffffffffffffffffffffffffffffffffffff163373ffffffffffffffffffffffffffffffffffffffff1614610df7576040517f08c379a0000000000000000000000000000000000000000000000000000000008152600401610dee906129a7565b60405180910390fd5b60006001600754610e089190612b89565b905060008484905067ffffffffffffffff811115610e4f577f4e487b7100000000000000000000000000000000000000000000000000000000600052604160045260246000fd5b604051908082528060200260200182016040528015610e7d5781602001602082028036833780820191505090505b50905060005b858590508110156110115760076000815480929190610ea190612d5d565b9190505550610f0e868683818110610ee2577f4e487b7100000000000000000000000000000000000000000000000000000000600052603260045260246000fd5b9050602002810190610ef49190612a62565b6000016020810190610f069190612019565b600754611534565b610fb6600754878784818110610f4d577f4e487b7100000000000000000000000000000000000000000000000000000000600052603260045260246000fd5b9050602002810190610f5f9190612a62565b8060200190610f6e9190612a0b565b8080601f016020809104026020016040519081016040528093929190818152602001838380828437600081840152601f19601f82011690508083019250505050505050611552565b600754828281518110610ff2577f4e487b7100000000000000000000000000000000000000000000000000000000600052603260045260246000fd5b602002602001018181525050808061100990612d5d565b915050610e83565b507f85aed37bb7cc21133f66f266fd7dd9c78412611a999a3ad78f1000382133469a826007546040516110459291906129e2565b60405180910390a1809250505092915050565b60007f01ffc9a7000000000000000000000000000000000000000000000000000000007bffffffffffffffffffffffffffffffffffffffffffffffffffffffff1916827bffffffffffffffffffffffffffffffffffffffffffffffffffffffff1916149050919050565b60008073ffffffffffffffffffffffffffffffffffffffff166002600084815260200190815260200160002060009054906101000a900473ffffffffffffffffffffffffffffffffffffffff1673ffffffffffffffffffffffffffffffffffffffff1614159050919050565b600033905090565b816004600083815260200190815260200160002060006101000a81548173ffffffffffffffffffffffffffffffffffffffff021916908373ffffffffffffffffffffffffffffffffffffffff160217905550808273ffffffffffffffffffffffffffffffffffffffff166111a9836107ad565b73ffffffffffffffffffffffffffffffffffffffff167f8c5be1e5ebec7d5bd14f71427d1e84f3dd0314c0f7b2291e5b200ac8c7c3b92560405160405180910390a45050565b60006111fa826110c2565b611239576040517f08c379a000000000000000000000000000000000000000000000000000000000815260040161123090612847565b60405180910390fd5b6000611244836107ad565b90508073ffffffffffffffffffffffffffffffffffffffff168473ffffffffffffffffffffffffffffffffffffffff1614806112b357508373ffffffffffffffffffffffffffffffffffffffff1661129b8461056a565b73ffffffffffffffffffffffffffffffffffffffff16145b806112c457506112c38185610cd1565b5b91505092915050565b8273ffffffffffffffffffffffffffffffffffffffff166112ed826107ad565b73ffffffffffffffffffffffffffffffffffffffff1614611343576040517f08c379a000000000000000000000000000000000000000000000000000000000815260040161133a906127c7565b60405180910390fd5b600073ffffffffffffffffffffffffffffffffffffffff168273ffffffffffffffffffffffffffffffffffffffff1614156113b3576040517f08c379a00000000000000000000000000000000000000000000000000000000081526004016113aa90612807565b60405180910390fd5b6113be83838361184d565b6113c9600082611136565b6001600360008573ffffffffffffffffffffffffffffffffffffffff1673ffffffffffffffffffffffffffffffffffffffff16815260200190815260200160002060008282546114199190612c10565b925050819055506001600360008473ffffffffffffffffffffffffffffffffffffffff1673ffffffffffffffffffffffffffffffffffffffff16815260200190815260200160002060008282546114709190612b89565b92505081905550816002600083815260200190815260200160002060006101000a81548173ffffffffffffffffffffffffffffffffffffffff021916908373ffffffffffffffffffffffffffffffffffffffff160217905550808273ffffffffffffffffffffffffffffffffffffffff168473ffffffffffffffffffffffffffffffffffffffff167fddf252ad1be2c89b69c2b068fc378daa952ba7f163c4a11628f55a4df523b3ef60405160405180910390a461152f838383611852565b505050565b61154e828260405180602001604052806000815250611857565b5050565b61155b826110c2565b61159a576040517f08c379a0000000000000000000000000000000000000000000000000000000008152600401611591906128c7565b60405180910390fd5b806006600084815260200190815260200160002090805190602001906115c1929190611df3565b505050565b8173ffffffffffffffffffffffffffffffffffffffff168373ffffffffffffffffffffffffffffffffffffffff161415611635576040517f08c379a000000000000000000000000000000000000000000000000000000000815260040161162c90612827565b60405180910390fd5b80600560008573ffffffffffffffffffffffffffffffffffffffff1673ffffffffffffffffffffffffffffffffffffffff16815260200190815260200160002060008473ffffffffffffffffffffffffffffffffffffffff1673ffffffffffffffffffffffffffffffffffffffff16815260200190815260200160002060006101000a81548160ff0219169083151502179055508173ffffffffffffffffffffffffffffffffffffffff168373ffffffffffffffffffffffffffffffffffffffff167f17307eab39ab6107e8899845ad3d59bd9653f200f220920489ca2b5937696c3183604051611726919061276a565b60405180910390a3505050565b61173e8484846112cd565b61174a848484846118b2565b611789576040517f08c379a0000000000000000000000000000000000000000000000000000000008152600401611780906127a7565b60405180910390fd5b50505050565b606060405180602001604052806000815250905090565b60606117b1826110c2565b6117f0576040517f08c379a00000000000000000000000000000000000000000000000000000000081526004016117e790612947565b60405180910390fd5b60006117fa61178f565b9050600081511161181a5760405180602001604052806000815250611845565b8061182484611a49565b6040516020016118359291906126bd565b6040516020818303038152906040525b915050919050565b505050565b505050565b6118618383611bf6565b61186e60008484846118b2565b6118ad576040517f08c379a00000000000000000000000000000000000000000000000000000000081526004016118a4906127a7565b60405180910390fd5b505050565b60006118d38473ffffffffffffffffffffffffffffffffffffffff16611dd0565b15611a3c578373ffffffffffffffffffffffffffffffffffffffff1663150b7a026118fc61112e565b8786866040518563ffffffff1660e01b815260040161191e94939291906126fc565b602060405180830381600087803b15801561193857600080fd5b505af192505050801561196957506040513d601f19601f82011682018060405250810190611966919061222e565b60015b6119ec573d8060008114611999576040519150601f19603f3d011682016040523d82523d6000602084013e61199e565b606091505b506000815114156119e4576040517f08c379a00000000000000000000000000000000000000000000000000000000081526004016119db906127a7565b60405180910390fd5b805181602001fd5b63150b7a0260e01b7bffffffffffffffffffffffffffffffffffffffffffffffffffffffff1916817bffffffffffffffffffffffffffffffffffffffffffffffffffffffff191614915050611a41565b600190505b949350505050565b60606000821415611a91576040518060400160405280600181526020017f30000000000000000000000000000000000000000000000000000000000000008152509050611bf1565b600082905060005b60008214611ac3578080611aac90612d5d565b915050600a82611abc9190612bdf565b9150611a99565b60008167ffffffffffffffff811115611b05577f4e487b7100000000000000000000000000000000000000000000000000000000600052604160045260246000fd5b6040519080825280601f01601f191660200182016040528015611b375781602001600182028036833780820191505090505b5090505b60008514611bea57600182611b509190612c10565b9150600a85611b5f9190612da6565b6030611b6b9190612b89565b60f81b818381518110611ba7577f4e487b7100000000000000000000000000000000000000000000000000000000600052603260045260246000fd5b60200101907effffffffffffffffffffffffffffffffffffffffffffffffffffffffffffff1916908160001a905350600a85611be39190612bdf565b9450611b3b565b8093505050505b919050565b600073ffffffffffffffffffffffffffffffffffffffff168273ffffffffffffffffffffffffffffffffffffffff161415611c66576040517f08c379a0000000000000000000000000000000000000000000000000000000008152600401611c5d906128e7565b60405180910390fd5b611c6f816110c2565b15611caf576040517f08c379a0000000000000000000000000000000000000000000000000000000008152600401611ca6906127e7565b60405180910390fd5b611cbb6000838361184d565b6001600360008473ffffffffffffffffffffffffffffffffffffffff1673ffffffffffffffffffffffffffffffffffffffff1681526020019081526020016000206000828254611d0b9190612b89565b92505081905550816002600083815260200190815260200160002060006101000a81548173ffffffffffffffffffffffffffffffffffffffff021916908373ffffffffffffffffffffffffffffffffffffffff160217905550808273ffffffffffffffffffffffffffffffffffffffff16600073ffffffffffffffffffffffffffffffffffffffff167fddf252ad1be2c89b69c2b068fc378daa952ba7f163c4a11628f55a4df523b3ef60405160405180910390a4611dcc60008383611852565b5050565b6000808273ffffffffffffffffffffffffffffffffffffffff163b119050919050565b828054611dff90612cfa565b90600052602060002090601f016020900481019282611e215760008555611e68565b82601f10611e3a57805160ff1916838001178555611e68565b82800160010185558215611e68579182015b82811115611e67578251825591602001919060010190611e4c565b5b509050611e759190611e79565b5090565b5b80821115611e92576000816000905550600101611e7a565b5090565b6000611ea9611ea484612aab565b612a86565b905082815260208101848484011115611ec157600080fd5b611ecc848285612cb8565b509392505050565b6000611ee7611ee284612adc565b612a86565b905082815260208101848484011115611eff57600080fd5b611f0a848285612cb8565b509392505050565b600081359050611f2181613371565b92915050565b60008083601f840112611f3957600080fd5b8235905067ffffffffffffffff811115611f5257600080fd5b602083019150836020820283011115611f6a57600080fd5b9250929050565b600081359050611f8081613388565b92915050565b600081359050611f958161339f565b92915050565b600081519050611faa8161339f565b92915050565b600082601f830112611fc157600080fd5b8135611fd1848260208601611e96565b91505092915050565b600082601f830112611feb57600080fd5b8135611ffb848260208601611ed4565b91505092915050565b600081359050612013816133b6565b92915050565b60006020828403121561202b57600080fd5b600061203984828501611f12565b91505092915050565b6000806040838503121561205557600080fd5b600061206385828601611f12565b925050602061207485828601611f12565b9150509250929050565b60008060006060848603121561209357600080fd5b60006120a186828701611f12565b93505060206120b286828701611f12565b92505060406120c386828701612004565b9150509250925092565b600080600080608085870312156120e357600080fd5b60006120f187828801611f12565b945050602061210287828801611f12565b935050604061211387828801612004565b925050606085013567ffffffffffffffff81111561213057600080fd5b61213c87828801611fb0565b91505092959194509250565b6000806040838503121561215b57600080fd5b600061216985828601611f12565b925050602061217a85828601611f71565b9150509250929050565b6000806040838503121561219757600080fd5b60006121a585828601611f12565b92505060206121b685828601612004565b9150509250929050565b600080602083850312156121d357600080fd5b600083013567ffffffffffffffff8111156121ed57600080fd5b6121f985828601611f27565b92509250509250929050565b60006020828403121561221757600080fd5b600061222584828501611f86565b91505092915050565b60006020828403121561224057600080fd5b600061224e84828501611f9b565b91505092915050565b60006020828403121561226957600080fd5b600082013567ffffffffffffffff81111561228357600080fd5b61228f84828501611fda565b91505092915050565b600080604083850312156122ab57600080fd5b600083013567ffffffffffffffff8111156122c557600080fd5b6122d185828601611fda565b92505060206122e285828601611f12565b9150509250929050565b6000602082840312156122fe57600080fd5b600061230c84828501612004565b91505092915050565b6000612321838361269f565b60208301905092915050565b61233681612c44565b82525050565b600061234782612b1d565b6123518185612b4b565b935061235c83612b0d565b8060005b8381101561238d5781516123748882612315565b975061237f83612b3e565b925050600181019050612360565b5085935050505092915050565b6123a381612c56565b82525050565b60006123b482612b28565b6123be8185612b5c565b93506123ce818560208601612cc7565b6123d781612e93565b840191505092915050565b60006123ed82612b33565b6123f78185612b6d565b9350612407818560208601612cc7565b61241081612e93565b840191505092915050565b600061242682612b33565b6124308185612b7e565b9350612440818560208601612cc7565b80840191505092915050565b6000612459603283612b6d565b915061246482612ea4565b604082019050919050565b600061247c602583612b6d565b915061248782612ef3565b604082019050919050565b600061249f601c83612b6d565b91506124aa82612f42565b602082019050919050565b60006124c2602483612b6d565b91506124cd82612f6b565b604082019050919050565b60006124e5601983612b6d565b91506124f082612fba565b602082019050919050565b6000612508602c83612b6d565b915061251382612fe3565b604082019050919050565b600061252b603883612b6d565b915061253682613032565b604082019050919050565b600061254e602a83612b6d565b915061255982613081565b604082019050919050565b6000612571602983612b6d565b915061257c826130d0565b604082019050919050565b6000612594602e83612b6d565b915061259f8261311f565b604082019050919050565b60006125b7602083612b6d565b91506125c28261316e565b602082019050919050565b60006125da603183612b6d565b91506125e582613197565b604082019050919050565b60006125fd602c83612b6d565b9150612608826131e6565b604082019050919050565b6000612620602f83612b6d565b915061262b82613235565b604082019050919050565b6000612643602183612b6d565b915061264e82613284565b604082019050919050565b6000612666603183612b6d565b9150612671826132d3565b604082019050919050565b6000612689602783612b6d565b915061269482613322565b604082019050919050565b6126a881612cae565b82525050565b6126b781612cae565b82525050565b60006126c9828561241b565b91506126d5828461241b565b91508190509392505050565b60006020820190506126f6600083018461232d565b92915050565b6000608082019050612711600083018761232d565b61271e602083018661232d565b61272b60408301856126ae565b818103606083015261273d81846123a9565b905095945050505050565b60006020820190508181036000830152612762818461233c565b905092915050565b600060208201905061277f600083018461239a565b92915050565b6000602082019050818103600083015261279f81846123e2565b905092915050565b600060208201905081810360008301526127c08161244c565b9050919050565b600060208201905081810360008301526127e08161246f565b9050919050565b6000602082019050818103600083015261280081612492565b9050919050565b60006020820190508181036000830152612820816124b5565b9050919050565b60006020820190508181036000830152612840816124d8565b9050919050565b60006020820190508181036000830152612860816124fb565b9050919050565b600060208201905081810360008301526128808161251e565b9050919050565b600060208201905081810360008301526128a081612541565b9050919050565b600060208201905081810360008301526128c081612564565b9050919050565b600060208201905081810360008301526128e081612587565b9050919050565b60006020820190508181036000830152612900816125aa565b9050919050565b60006020820190508181036000830152612920816125cd565b9050919050565b60006020820190508181036000830152612940816125f0565b9050919050565b6000602082019050818103600083015261296081612613565b9050919050565b6000602082019050818103600083015261298081612636565b9050919050565b600060208201905081810360008301526129a081612659565b9050919050565b600060208201905081810360008301526129c08161267c565b9050919050565b60006020820190506129dc60008301846126ae565b92915050565b60006040820190506129f760008301856126ae565b612a0460208301846126ae565b9392505050565b60008083356001602003843603038112612a2457600080fd5b80840192508235915067ffffffffffffffff821115612a4257600080fd5b602083019250600182023603831315612a5a57600080fd5b509250929050565b600082356001604003833603038112612a7a57600080fd5b80830191505092915050565b6000612a90612aa1565b9050612a9c8282612d2c565b919050565b6000604051905090565b600067ffffffffffffffff821115612ac657612ac5612e64565b5b612acf82612e93565b9050602081019050919050565b600067ffffffffffffffff821115612af757612af6612e64565b5b612b0082612e93565b9050602081019050919050565b6000819050602082019050919050565b600081519050919050565b600081519050919050565b600081519050919050565b6000602082019050919050565b600082825260208201905092915050565b600082825260208201905092915050565b600082825260208201905092915050565b600081905092915050565b6000612b9482612cae565b9150612b9f83612cae565b9250827fffffffffffffffffffffffffffffffffffffffffffffffffffffffffffffffff03821115612bd457612bd3612dd7565b5b828201905092915050565b6000612bea82612cae565b9150612bf583612cae565b925082612c0557612c04612e06565b5b828204905092915050565b6000612c1b82612cae565b9150612c2683612cae565b925082821015612c3957612c38612dd7565b5b828203905092915050565b6000612c4f82612c8e565b9050919050565b60008115159050919050565b60007fffffffff0000000000000000000000000000000000000000000000000000000082169050919050565b600073ffffffffffffffffffffffffffffffffffffffff82169050919050565b6000819050919050565b82818337600083830152505050565b60005b83811015612ce5578082015181840152602081019050612cca565b83811115612cf4576000848401525b50505050565b60006002820490506001821680612d1257607f821691505b60208210811415612d2657612d25612e35565b5b50919050565b612d3582612e93565b810181811067ffffffffffffffff82111715612d5457612d53612e64565b5b80604052505050565b6000612d6882612cae565b91507fffffffffffffffffffffffffffffffffffffffffffffffffffffffffffffffff821415612d9b57612d9a612dd7565b5b600182019050919050565b6000612db182612cae565b9150612dbc83612cae565b925082612dcc57612dcb612e06565b5b828206905092915050565b7f4e487b7100000000000000000000000000000000000000000000000000000000600052601160045260246000fd5b7f4e487b7100000000000000000000000000000000000000000000000000000000600052601260045260246000fd5b7f4e487b7100000000000000000000000000000000000000000000000000000000600052602260045260246000fd5b7f4e487b7100000000000000000000000000000000000000000000000000000000600052604160045260246000fd5b6000601f19601f8301169050919050565b7f4552433732313a207472616e7366657220746f206e6f6e20455243373231526560008201527f63656976657220696d706c656d656e7465720000000000000000000000000000602082015250565b7f4552433732313a207472616e736665722066726f6d20696e636f72726563742060008201527f6f776e6572000000000000000000000000000000000000000000000000000000602082015250565b7f4552433732313a20746f6b656e20616c7265616479206d696e74656400000000600082015250565b7f4552433732313a207472616e7366657220746f20746865207a65726f2061646460008201527f7265737300000000000000000000000000000000000000000000000000000000602082015250565b7f4552433732313a20617070726f766520746f2063616c6c657200000000000000600082015250565b7f4552433732313a206f70657261746f7220717565727920666f72206e6f6e657860008201527f697374656e7420746f6b656e0000000000000000000000000000000000000000602082015250565b7f4552433732313a20617070726f76652063616c6c6572206973206e6f74206f7760008201527f6e6572206e6f7220617070726f76656420666f7220616c6c0000000000000000602082015250565b7f4552433732313a2062616c616e636520717565727920666f7220746865207a6560008201527f726f206164647265737300000000000000000000000000000000000000000000602082015250565b7f4552433732313a206f776e657220717565727920666f72206e6f6e657869737460008201527f656e7420746f6b656e0000000000000000000000000000000000000000000000602082015250565b7f45524337323155524953746f726167653a2055524920736574206f66206e6f6e60008201527f6578697374656e7420746f6b656e000000000000000000000000000000000000602082015250565b7f4552433732313a206d696e7420746f20746865207a65726f2061646472657373600082015250565b7f45524337323155524953746f726167653a2055524920717565727920666f722060008201527f6e6f6e6578697374656e7420746f6b656e000000000000000000000000000000602082015250565b7f4552433732313a20617070726f76656420717565727920666f72206e6f6e657860008201527f697374656e7420746f6b656e0000000000000000000000000000000000000000602082015250565b7f4552433732314d657461646174613a2055524920717565727920666f72206e6f60008201527f6e6578697374656e7420746f6b656e0000000000000000000000000000000000602082015250565b7f4552433732313a20617070726f76616c20746f2063757272656e74206f776e6560008201527f7200000000000000000000000000000000000000000000000000000000000000602082015250565b7f4552433732313a207472616e736665722063616c6c6572206973206e6f74206f60008201527f776e6572206e6f7220617070726f766564000000000000000000000000000000602082015250565b7f456e68616e6365644e46543a2063616c6c6572206973206e6f7420746865206f60008201527f70657261746f7200000000000000000000000000000000000000000000000000602082015250565b61337a81612c44565b811461338557600080fd5b50565b61339181612c56565b811461339c57600080fd5b50565b6133a881612c62565b81146133b357600080fd5b50565b6133bf81612cae565b81146133ca57600080fd5b5056fea2646970667358221220ddd8435f7a18093a7f68b466e7db3992583a6f76c8146d58a9faee6a8aa70b2364736f6c63430008040033",
  "linkReferences": {},
  "deployedLinkReferences": {}
}