{
  "_format": "hh-sol-artifact-1",
  "contractName": "MarketplaceWithRollup",
  "sourceName": "src/backend/contracts/MarketplaceWithRollup.sol",
  "abi": [
    {
      "inputs": [
        {
          "internalType": "uint256",
          "name": "_feePercent",
          "type": "uint256"
        },
        {
          "internalType": "address",
          "name": "_batchProcessorAddress",
          "type": "address"
        }
      ],
      "stateMutability": "nonpayable",
      "type": "constructor"
    },
    {
      "anonymous": false,
      "inputs": [
        {
          "indexed": false,
          "internalType": "bytes32",
          "name": "transactionHash",
          "type": "bytes32"
        }
      ],
      "name": "BatchedPurchase",
      "type": "event"
    },
    {
      "anonymous": false,
      "inputs": [
        {
          "indexed": false,
          "internalType": "uint256",
          "name": "itemId",
          "type": "uint256"
        },
        {
          "indexed": true,
          "internalType": "address",
          "name": "nft",
          "type": "address"
        },
        {
          "indexed": false,
          "internalType": "uint256",
          "name": "tokenId",
          "type": "uint256"
        },
        {
          "indexed": false,
          "internalType": "uint256",
          "name": "price",
          "type": "uint256"
        },
        {
          "indexed": true,
          "internalType": "address",
          "name": "seller",
          "type": "address"
        },
        {
          "indexed": true,
          "internalType": "address",
          "name": "buyer",
          "type": "address"
        }
      ],
      "name": "Bought",
      "type": "event"
    },
    {
      "anonymous": false,
      "inputs": [
        {
          "indexed": true,
          "internalType": "address",
          "name": "user",
          "type": "address"
        },
        {
          "indexed": false,
          "internalType": "uint256",
          "name": "amount",
          "type": "uint256"
        }
      ],
      "name": "Deposited",
      "type": "event"
    },
    {
      "anonymous": false,
      "inputs": [
        {
          "indexed": false,
          "internalType": "uint256",
          "name": "itemId",
          "type": "uint256"
        },
        {
          "indexed": true,
          "internalType": "address",
          "name": "nft",
          "type": "address"
        },
        {
          "indexed": false,
          "internalType": "uint256",
          "name": "tokenId",
          "type": "uint256"
        },
        {
          "indexed": false,
          "internalType": "uint256",
          "name": "price",
          "type": "uint256"
        },
        {
          "indexed": true,
          "internalType": "address",
          "name": "seller",
          "type": "address"
        }
      ],
      "name": "Offered",
      "type": "event"
    },
    {
      "anonymous": false,
      "inputs": [
        {
          "indexed": true,
          "internalType": "address",
          "name": "user",
          "type": "address"
        },
        {
          "indexed": false,
          "internalType": "uint256",
          "name": "amount",
          "type": "uint256"
        }
      ],
      "name": "Withdrawn",
      "type": "event"
    },
    {
      "inputs": [],
      "name": "batchProcessor",
      "outputs": [
        {
          "internalType": "address",
          "name": "",
          "type": "address"
        }
      ],
      "stateMutability": "view",
      "type": "function"
    },
    {
      "inputs": [
        {
          "internalType": "uint256[]",
          "name": "_itemIds",
          "type": "uint256[]"
        }
      ],
      "name": "batchPurchaseItems",
      "outputs": [],
      "stateMutability": "payable",
      "type": "function"
    },
    {
      "inputs": [],
      "name": "deposit",
      "outputs": [],
      "stateMutability": "payable",
      "type": "function"
    },
    {
      "inputs": [
        {
          "internalType": "address",
          "name": "",
          "type": "address"
        }
      ],
      "name": "deposits",
      "outputs": [
        {
          "internalType": "uint256",
          "name": "",
          "type": "uint256"
        }
      ],
      "stateMutability": "view",
      "type": "function"
    },
    {
      "inputs": [],
      "name": "feeAccount",
      "outputs": [
        {
          "internalType": "address payable",
          "name": "",
          "type": "address"
        }
      ],
      "stateMutability": "view",
      "type": "function"
    },
    {
      "inputs": [],
      "name": "feePercent",
      "outputs": [
        {
          "internalType": "uint256",
          "name": "",
          "type": "uint256"
        }
      ],
      "stateMutability": "view",
      "type": "function"
    },
    {
      "inputs": [
        {
          "internalType": "uint256",
          "name": "_itemId",
          "type": "uint256"
        }
      ],
      "name": "getTotalPrice",
      "outputs": [
        {
          "internalType": "uint256",
          "name": "",
          "type": "uint256"
        }
      ],
      "stateMutability": "view",
      "type": "function"
    },
    {
      "inputs": [],
      "name": "itemCount",
      "outputs": [
        {
          "internalType": "uint256",
          "name": "",
          "type": "uint256"
        }
      ],
      "stateMutability": "view",
      "type": "function"
    },
    {
      "inputs": [
        {
          "internalType": "uint256",
          "name": "",
          "type": "uint256"
        }
      ],
      "name": "items",
      "outputs": [
        {
          "internalType": "uint256",
          "name": "itemId",
          "type": "uint256"
        },
        {
          "internalType": "contract IERC721",
          "name": "nft",
          "type": "address"
        },
        {
          "internalType": "uint256",
          "name": "tokenId",
          "type": "uint256"
        },
        {
          "internalType": "uint256",
          "name": "price",
          "type": "uint256"
        },
        {
          "internalType": "address payable",
          "name": "seller",
          "type": "address"
        },
        {
          "internalType": "bool",
          "name": "sold",
          "type": "bool"
        }
      ],
      "stateMutability": "view",
      "type": "function"
    },
    {
      "inputs": [
        {
          "internalType": "contract IERC721",
          "name": "_nft",
          "type": "address"
        },
        {
          "internalType": "uint256",
          "name": "_tokenId",
          "type": "uint256"
        },
        {
          "internalType": "uint256",
          "name": "_price",
          "type": "uint256"
        }
      ],
      "name": "makeItem",
      "outputs": [],
      "stateMutability": "nonpayable",
      "type": "function"
    },
    {
      "inputs": [
        {
          "internalType": "bytes32",
          "name": "",
          "type": "bytes32"
        }
      ],
      "name": "processedTransactions",
      "outputs": [
        {
          "internalType": "bool",
          "name": "",
          "type": "bool"
        }
      ],
      "stateMutability": "view",
      "type": "function"
    },
    {
      "inputs": [
        {
          "internalType": "uint256",
          "name": "_itemId",
          "type": "uint256"
        }
      ],
      "name": "purchaseItem",
      "outputs": [],
      "stateMutability": "payable",
      "type": "function"
    },
    {
      "inputs": [
        {
          "internalType": "uint256",
          "name": "_amount",
          "type": "uint256"
        }
      ],
      "name": "withdraw",
      "outputs": [],
      "stateMutability": "nonpayable",
      "type": "function"
    }
  ],
  "bytecode": "0x60c06040523480156200001157600080fd5b5060405162001e2838038062001e288339818101604052810190620000379190620000f5565b60016000819055503373ffffffffffffffffffffffffffffffffffffffff1660808173ffffffffffffffffffffffffffffffffffffffff1660601b815250508160a0818152505080600260006101000a81548173ffffffffffffffffffffffffffffffffffffffff021916908373ffffffffffffffffffffffffffffffffffffffff1602179055505050620001a8565b600081519050620000d88162000174565b92915050565b600081519050620000ef816200018e565b92915050565b600080604083850312156200010957600080fd5b60006200011985828601620000de565b92505060206200012c85828601620000c7565b9150509250929050565b600062000143826200014a565b9050919050565b600073ffffffffffffffffffffffffffffffffffffffff82169050919050565b6000819050919050565b6200017f8162000136565b81146200018b57600080fd5b50565b62000199816200016a565b8114620001a557600080fd5b50565b60805160601c60a051611c42620001e660003960008181610a240152610b1b0152600081816104c8015281816109460152610de70152611c426000f3fe6080604052600436106100c25760003560e01c8063ac2e49361161007f578063d0e30db011610059578063d0e30db014610274578063d38ea5bf1461027e578063fa00afc71461029a578063fc7e286d146102c3576100c2565b8063ac2e4936146101b8578063bfb231d2146101f5578063ca7dd37514610237576100c2565b80632e1a7d4d146100c757806365e17c9d146100f057806367c13eed1461011b5780636bfb0d01146101375780637fd6f15c14610162578063a0af698b1461018d575b600080fd5b3480156100d357600080fd5b506100ee60048036038101906100e9919061145a565b610300565b005b3480156100fc57600080fd5b506101056104c6565b60405161011291906115de565b60405180910390f35b6101356004803603810190610130919061139d565b6104ea565b005b34801561014357600080fd5b5061014c610a1c565b604051610159919061172b565b60405180910390f35b34801561016e57600080fd5b50610177610a22565b604051610184919061172b565b60405180910390f35b34801561019957600080fd5b506101a2610a46565b6040516101af91906115c3565b60405180910390f35b3480156101c457600080fd5b506101df60048036038101906101da91906113e2565b610a6c565b6040516101ec9190611630565b60405180910390f35b34801561020157600080fd5b5061021c6004803603810190610217919061145a565b610a8c565b60405161022e96959493929190611746565b60405180910390f35b34801561024357600080fd5b5061025e6004803603810190610259919061145a565b610b15565b60405161026b919061172b565b60405180910390f35b61027c610b78565b005b6102986004803603810190610293919061145a565b610c1e565b005b3480156102a657600080fd5b506102c160048036038101906102bc919061140b565b610fec565b005b3480156102cf57600080fd5b506102ea60048036038101906102e59190611374565b6112be565b6040516102f7919061172b565b60405180910390f35b60026000541415610346576040517f08c379a000000000000000000000000000000000000000000000000000000000815260040161033d9061170b565b60405180910390fd5b600260008190555080600560003373ffffffffffffffffffffffffffffffffffffffff1673ffffffffffffffffffffffffffffffffffffffff1681526020019081526020016000205410156103d0576040517f08c379a00000000000000000000000000000000000000000000000000000000081526004016103c7906116eb565b60405180910390fd5b80600560003373ffffffffffffffffffffffffffffffffffffffff1673ffffffffffffffffffffffffffffffffffffffff168152602001908152602001600020600082825461041f91906118d0565b925050819055503373ffffffffffffffffffffffffffffffffffffffff166108fc829081150290604051600060405180830381858888f1935050505015801561046c573d6000803e3d6000fd5b503373ffffffffffffffffffffffffffffffffffffffff167f7084f5476618d8e60b11ef0d7d3f06914655adb8793e28ff7f018d4c76d505d5826040516104b3919061172b565b60405180910390a2600160008190555050565b7f000000000000000000000000000000000000000000000000000000000000000081565b60026000541415610530576040517f08c379a00000000000000000000000000000000000000000000000000000000081526004016105279061170b565b60405180910390fd5b60026000819055506000805b8383905081101561066a576000848483818110610582577f4e487b7100000000000000000000000000000000000000000000000000000000600052603260045260246000fd5b90506020020135905060008111801561059d57506001548111155b6105dc576040517f08c379a00000000000000000000000000000000000000000000000000000000081526004016105d3906116cb565b60405180910390fd5b6004600082815260200190815260200160002060040160149054906101000a900460ff1615610640576040517f08c379a00000000000000000000000000000000000000000000000000000000081526004016106379061164b565b60405180910390fd5b61064981610b15565b8361065491906117ef565b92505080806106629061199e565b91505061053c565b50803410156106ae576040517f08c379a00000000000000000000000000000000000000000000000000000000081526004016106a5906116ab565b60405180910390fd5b60005b8383905081101561091f5760008484838181106106f7577f4e487b7100000000000000000000000000000000000000000000000000000000600052603260045260246000fd5b90506020020135905060006004600083815260200190815260200160002090508060040160009054906101000a900473ffffffffffffffffffffffffffffffffffffffff1673ffffffffffffffffffffffffffffffffffffffff166108fc82600301549081150290604051600060405180830381858888f19350505050158015610785573d6000803e3d6000fd5b5060018160040160146101000a81548160ff0219169083151502179055508060010160009054906101000a900473ffffffffffffffffffffffffffffffffffffffff1673ffffffffffffffffffffffffffffffffffffffff166323b872dd303384600201546040518463ffffffff1660e01b8152600401610808939291906115f9565b600060405180830381600087803b15801561082257600080fd5b505af1158015610836573d6000803e3d6000fd5b505050503373ffffffffffffffffffffffffffffffffffffffff168160040160009054906101000a900473ffffffffffffffffffffffffffffffffffffffff1673ffffffffffffffffffffffffffffffffffffffff168260010160009054906101000a900473ffffffffffffffffffffffffffffffffffffffff1673ffffffffffffffffffffffffffffffffffffffff167f8b4c9c8a607d67b321582dd8461041b1dc2ceeca70c8b7f37f8e02095cf2e76d8585600201548660030154604051610902939291906117a7565b60405180910390a4505080806109179061199e565b9150506106b1565b506000813461092e91906118d0565b8261093991906118d0565b905060008111156109ac577f000000000000000000000000000000000000000000000000000000000000000073ffffffffffffffffffffffffffffffffffffffff166108fc829081150290604051600060405180830381858888f193505050501580156109aa573d6000803e3d6000fd5b505b600082346109ba91906118d0565b90506000811115610a0d573373ffffffffffffffffffffffffffffffffffffffff166108fc829081150290604051600060405180830381858888f19350505050158015610a0b573d6000803e3d6000fd5b505b50505060016000819055505050565b60015481565b7f000000000000000000000000000000000000000000000000000000000000000081565b600260009054906101000a900473ffffffffffffffffffffffffffffffffffffffff1681565b60036020528060005260406000206000915054906101000a900460ff1681565b60046020528060005260406000206000915090508060000154908060010160009054906101000a900473ffffffffffffffffffffffffffffffffffffffff16908060020154908060030154908060040160009054906101000a900473ffffffffffffffffffffffffffffffffffffffff16908060040160149054906101000a900460ff16905086565b600060647f00000000000000000000000000000000000000000000000000000000000000006064610b4691906117ef565b6004600085815260200190815260200160002060030154610b679190611876565b610b719190611845565b9050919050565b34600560003373ffffffffffffffffffffffffffffffffffffffff1673ffffffffffffffffffffffffffffffffffffffff1681526020019081526020016000206000828254610bc791906117ef565b925050819055503373ffffffffffffffffffffffffffffffffffffffff167f2da466a7b24304f47e87fa2e1e5a81b9831ce54fec19055ce277ca2f39ba42c434604051610c14919061172b565b60405180910390a2565b60026000541415610c64576040517f08c379a0000000000000000000000000000000000000000000000000000000008152600401610c5b9061170b565b60405180910390fd5b60026000819055506000610c7782610b15565b90506000600460008481526020019081526020016000209050600083118015610ca257506001548311155b610ce1576040517f08c379a0000000000000000000000000000000000000000000000000000000008152600401610cd8906116cb565b60405180910390fd5b81341015610d24576040517f08c379a0000000000000000000000000000000000000000000000000000000008152600401610d1b9061168b565b60405180910390fd5b8060040160149054906101000a900460ff1615610d76576040517f08c379a0000000000000000000000000000000000000000000000000000000008152600401610d6d9061164b565b60405180910390fd5b8060040160009054906101000a900473ffffffffffffffffffffffffffffffffffffffff1673ffffffffffffffffffffffffffffffffffffffff166108fc82600301549081150290604051600060405180830381858888f19350505050158015610de4573d6000803e3d6000fd5b507f000000000000000000000000000000000000000000000000000000000000000073ffffffffffffffffffffffffffffffffffffffff166108fc826003015484610e2f91906118d0565b9081150290604051600060405180830381858888f19350505050158015610e5a573d6000803e3d6000fd5b5060018160040160146101000a81548160ff0219169083151502179055508060010160009054906101000a900473ffffffffffffffffffffffffffffffffffffffff1673ffffffffffffffffffffffffffffffffffffffff166323b872dd303384600201546040518463ffffffff1660e01b8152600401610edd939291906115f9565b600060405180830381600087803b158015610ef757600080fd5b505af1158015610f0b573d6000803e3d6000fd5b505050503373ffffffffffffffffffffffffffffffffffffffff168160040160009054906101000a900473ffffffffffffffffffffffffffffffffffffffff1673ffffffffffffffffffffffffffffffffffffffff168260010160009054906101000a900473ffffffffffffffffffffffffffffffffffffffff1673ffffffffffffffffffffffffffffffffffffffff167f8b4c9c8a607d67b321582dd8461041b1dc2ceeca70c8b7f37f8e02095cf2e76d8685600201548660030154604051610fd7939291906117a7565b60405180910390a45050600160008190555050565b60026000541415611032576040517f08c379a00000000000000000000000000000000000000000000000000000000081526004016110299061170b565b60405180910390fd5b60026000819055506000811161107d576040517f08c379a00000000000000000000000000000000000000000000000000000000081526004016110749061166b565b60405180910390fd5b600160008154809291906110909061199e565b91905055508273ffffffffffffffffffffffffffffffffffffffff166323b872dd3330856040518463ffffffff1660e01b81526004016110d2939291906115f9565b600060405180830381600087803b1580156110ec57600080fd5b505af1158015611100573d6000803e3d6000fd5b505050506040518060c0016040528060015481526020018473ffffffffffffffffffffffffffffffffffffffff1681526020018381526020018281526020013373ffffffffffffffffffffffffffffffffffffffff168152602001600015158152506004600060015481526020019081526020016000206000820151816000015560208201518160010160006101000a81548173ffffffffffffffffffffffffffffffffffffffff021916908373ffffffffffffffffffffffffffffffffffffffff160217905550604082015181600201556060820151816003015560808201518160040160006101000a81548173ffffffffffffffffffffffffffffffffffffffff021916908373ffffffffffffffffffffffffffffffffffffffff16021790555060a08201518160040160146101000a81548160ff0219169083151502179055509050503373ffffffffffffffffffffffffffffffffffffffff168373ffffffffffffffffffffffffffffffffffffffff167f655a0cf9c8db81512be9a76dc1c5ae5380b8816ce6ad659cd61b715e2999d59a60015485856040516112a9939291906117a7565b60405180910390a36001600081905550505050565b60056020528060005260406000206000915090505481565b6000813590506112e581611bb0565b92915050565b60008083601f8401126112fd57600080fd5b8235905067ffffffffffffffff81111561131657600080fd5b60208301915083602082028301111561132e57600080fd5b9250929050565b60008135905061134481611bc7565b92915050565b60008135905061135981611bde565b92915050565b60008135905061136e81611bf5565b92915050565b60006020828403121561138657600080fd5b6000611394848285016112d6565b91505092915050565b600080602083850312156113b057600080fd5b600083013567ffffffffffffffff8111156113ca57600080fd5b6113d6858286016112eb565b92509250509250929050565b6000602082840312156113f457600080fd5b600061140284828501611335565b91505092915050565b60008060006060848603121561142057600080fd5b600061142e8682870161134a565b935050602061143f8682870161135f565b92505060406114508682870161135f565b9150509250925092565b60006020828403121561146c57600080fd5b600061147a8482850161135f565b91505092915050565b61148c81611916565b82525050565b61149b81611904565b82525050565b6114aa81611928565b82525050565b6114b98161197a565b82525050565b60006114cc6011836117de565b91506114d782611a45565b602082019050919050565b60006114ef601f836117de565b91506114fa82611a6e565b602082019050919050565b60006115126033836117de565b915061151d82611a97565b604082019050919050565b60006115356023836117de565b915061154082611ae6565b604082019050919050565b60006115586012836117de565b915061156382611b35565b602082019050919050565b600061157b6012836117de565b915061158682611b5e565b602082019050919050565b600061159e601f836117de565b91506115a982611b87565b602082019050919050565b6115bd81611970565b82525050565b60006020820190506115d86000830184611492565b92915050565b60006020820190506115f36000830184611483565b92915050565b600060608201905061160e6000830186611492565b61161b6020830185611492565b61162860408301846115b4565b949350505050565b600060208201905061164560008301846114a1565b92915050565b60006020820190508181036000830152611664816114bf565b9050919050565b60006020820190508181036000830152611684816114e2565b9050919050565b600060208201905081810360008301526116a481611505565b9050919050565b600060208201905081810360008301526116c481611528565b9050919050565b600060208201905081810360008301526116e48161154b565b9050919050565b600060208201905081810360008301526117048161156e565b9050919050565b6000602082019050818103600083015261172481611591565b9050919050565b600060208201905061174060008301846115b4565b92915050565b600060c08201905061175b60008301896115b4565b61176860208301886114b0565b61177560408301876115b4565b61178260608301866115b4565b61178f6080830185611483565b61179c60a08301846114a1565b979650505050505050565b60006060820190506117bc60008301866115b4565b6117c960208301856115b4565b6117d660408301846115b4565b949350505050565b600082825260208201905092915050565b60006117fa82611970565b915061180583611970565b9250827fffffffffffffffffffffffffffffffffffffffffffffffffffffffffffffffff0382111561183a576118396119e7565b5b828201905092915050565b600061185082611970565b915061185b83611970565b92508261186b5761186a611a16565b5b828204905092915050565b600061188182611970565b915061188c83611970565b9250817fffffffffffffffffffffffffffffffffffffffffffffffffffffffffffffffff04831182151516156118c5576118c46119e7565b5b828202905092915050565b60006118db82611970565b91506118e683611970565b9250828210156118f9576118f86119e7565b5b828203905092915050565b600061190f82611950565b9050919050565b600061192182611950565b9050919050565b60008115159050919050565b6000819050919050565b600061194982611904565b9050919050565b600073ffffffffffffffffffffffffffffffffffffffff82169050919050565b6000819050919050565b60006119858261198c565b9050919050565b600061199782611950565b9050919050565b60006119a982611970565b91507fffffffffffffffffffffffffffffffffffffffffffffffffffffffffffffffff8214156119dc576119db6119e7565b5b600182019050919050565b7f4e487b7100000000000000000000000000000000000000000000000000000000600052601160045260246000fd5b7f4e487b7100000000000000000000000000000000000000000000000000000000600052601260045260246000fd5b7f6974656d20616c726561647920736f6c64000000000000000000000000000000600082015250565b7f5072696365206d7573742062652067726561746572207468616e207a65726f00600082015250565b7f6e6f7420656e6f75676820657468657220746f20636f766572206974656d207060008201527f7269636520616e64206d61726b65742066656500000000000000000000000000602082015250565b7f6e6f7420656e6f75676820657468657220746f20636f76657220616c6c20697460008201527f656d730000000000000000000000000000000000000000000000000000000000602082015250565b7f6974656d20646f65736e27742065786973740000000000000000000000000000600082015250565b7f696e73756666696369656e742066756e64730000000000000000000000000000600082015250565b7f5265656e7472616e637947756172643a207265656e7472616e742063616c6c00600082015250565b611bb981611904565b8114611bc457600080fd5b50565b611bd081611934565b8114611bdb57600080fd5b50565b611be78161193e565b8114611bf257600080fd5b50565b611bfe81611970565b8114611c0957600080fd5b5056fea264697066735822122054b9b06e2fa81ab3c37b01f012a6a608be13a40ff809548f051ef2618286000164736f6c63430008040033",
  "linkReferences": {},
  "deployedLinkReferences": {}
}