{
  "_format": "hh-sol-artifact-1",
  "contractName": "EnhancedNFT",
  "sourceName": "src/backend/contracts/EnhancedNFT.sol",
  "abi": [
    {
      "inputs": [],
      "stateMutability": "nonpayable",
      "type": "constructor"
    },
    {
      "anonymous": false,
      "inputs": [
        {
          "indexed": true,
          "internalType": "address",
          "name": "owner",
          "type": "address"
        },
        {
          "indexed": true,
          "internalType": "address",
          "name": "approved",
          "type": "address"
        },
        {
          "indexed": true,
          "internalType": "uint256",
          "name": "tokenId",
          "type": "uint256"
        }
      ],
      "name": "Approval",
      "type": "event"
    },
    {
      "anonymous": false,
      "inputs": [
        {
          "indexed": true,
          "internalType": "address",
          "name": "owner",
          "type": "address"
        },
        {
          "indexed": true,
          "internalType": "address",
          "name": "operator",
          "type": "address"
        },
        {
          "indexed": false,
          "internalType": "bool",
          "name": "approved",
          "type": "bool"
        }
      ],
      "name": "ApprovalForAll",
      "type": "event"
    },
    {
      "anonymous": false,
      "inputs": [
        {
          "indexed": false,
          "internalType": "uint256",
          "name": "fromTokenId",
          "type": "uint256"
        },
        {
          "indexed": false,
          "internalType": "uint256",
          "name": "toTokenId",
          "type": "uint256"
        }
      ],
      "name": "BatchMinted",
      "type": "event"
    },
    {
      "anonymous": false,
      "inputs": [
        {
          "indexed": true,
          "internalType": "address",
          "name": "from",
          "type": "address"
        },
        {
          "indexed": true,
          "internalType": "address",
          "name": "to",
          "type": "address"
        },
        {
          "indexed": true,
          "internalType": "uint256",
          "name": "tokenId",
          "type": "uint256"
        }
      ],
      "name": "Transfer",
      "type": "event"
    },
    {
      "inputs": [
        {
          "internalType": "address",
          "name": "to",
          "type": "address"
        },
        {
          "internalType": "uint256",
          "name": "tokenId",
          "type": "uint256"
        }
      ],
      "name": "approve",
      "outputs": [],
      "stateMutability": "nonpayable",
      "type": "function"
    },
    {
      "inputs": [
        {
          "internalType": "address",
          "name": "owner",
          "type": "address"
        }
      ],
      "name": "balanceOf",
      "outputs": [
        {
          "internalType": "uint256",
          "name": "",
          "type": "uint256"
        }
      ],
      "stateMutability": "view",
      "type": "function"
    },
    {
      "inputs": [
        {
          "components": [
            {
              "internalType": "address",
              "name": "recipient",
              "type": "address"
            },
            {
              "internalType": "string",
              "name": "tokenURI",
              "type": "string"
            }
          ],
          "internalType": "struct EnhancedNFT.BatchMintItem[]",
          "name": "_items",
          "type": "tuple[]"
        }
      ],
      "name": "batchMint",
      "outputs": [
        {
          "internalType": "uint256[]",
          "name": "",
          "type": "uint256[]"
        }
      ],
      "stateMutability": "nonpayable",
      "type": "function"
    },
    {
      "inputs": [
        {
          "internalType": "uint256",
          "name": "tokenId",
          "type": "uint256"
        }
      ],
      "name": "getApproved",
      "outputs": [
        {
          "internalType": "address",
          "name": "",
          "type": "address"
        }
      ],
      "stateMutability": "view",
      "type": "function"
    },
    {
      "inputs": [
        {
          "internalType": "address",
          "name": "owner",
          "type": "address"
        },
        {
          "internalType": "address",
          "name": "operator",
          "type": "address"
        }
      ],
      "name": "isApprovedForAll",
      "outputs": [
        {
          "internalType": "bool",
          "name": "",
          "type": "bool"
        }
      ],
      "stateMutability": "view",
      "type": "function"
    },
    {
      "inputs": [
        {
          "internalType": "string",
          "name": "_tokenURI",
          "type": "string"
        }
      ],
      "name": "mint",
      "outputs": [
        {
          "internalType": "uint256",
          "name": "",
          "type": "uint256"
        }
      ],
      "stateMutability": "nonpayable",
      "type": "function"
    },
    {
      "inputs": [],
      "name": "name",
      "outputs": [
        {
          "internalType": "string",
          "name": "",
          "type": "string"
        }
      ],
      "stateMutability": "view",
      "type": "function"
    },
    {
      "inputs": [],
      "name": "operator",
      "outputs": [
        {
          "internalType": "address",
          "name": "",
          "type": "address"
        }
      ],
      "stateMutability": "view",
      "type": "function"
    },
    {
      "inputs": [
        {
          "internalType": "uint256",
          "name": "tokenId",
          "type": "uint256"
        }
      ],
      "name": "ownerOf",
      "outputs": [
        {
          "internalType": "address",
          "name": "",
          "type": "address"
        }
      ],
      "stateMutability": "view",
      "type": "function"
    },
    {
      "inputs": [
        {
          "internalType": "address",
          "name": "from",
          "type": "address"
        },
        {
          "internalType": "address",
          "name": "to",
          "type": "address"
        },
        {
          "internalType": "uint256",
          "name": "tokenId",
          "type": "uint256"
        }
      ],
      "name": "safeTransferFrom",
      "outputs": [],
      "stateMutability": "nonpayable",
      "type": "function"
    },
    {
      "inputs": [
        {
          "internalType": "address",
          "name": "from",
          "type": "address"
        },
        {
          "internalType": "address",
          "name": "to",
          "type": "address"
        },
        {
          "internalType": "uint256",
          "name": "tokenId",
          "type": "uint256"
        },
        {
          "internalType": "bytes",
          "name": "_data",
          "type": "bytes"
        }
      ],
      "name": "safeTransferFrom",
      "outputs": [],
      "stateMutability": "nonpayable",
      "type": "function"
    },
    {
      "inputs": [
        {
          "internalType": "address",
          "name": "operator",
          "type": "address"
        },
        {
          "internalType": "bool",
          "name": "approved",
          "type": "bool"
        }
      ],
      "name": "setApprovalForAll",
      "outputs": [],
      "stateMutability": "nonpayable",
      "type": "function"
    },
    {
      "inputs": [
        {
          "internalType": "address",
          "name": "_newOperator",
          "type": "address"
        }
      ],
      "name": "setOperator",
      "outputs": [],
      "stateMutability": "nonpayable",
      "type": "function"
    },
    {
      "inputs": [
        {
          "internalType": "bytes4",
          "name": "interfaceId",
          "type": "bytes4"
        }
      ],
      "name": "supportsInterface",
      "outputs": [
        {
          "internalType": "bool",
          "name": "",
          "type": "bool"
        }
      ],
      "stateMutability": "view",
      "type": "function"
    },
    {
      "inputs": [],
      "name": "symbol",
      "outputs": [
        {
          "internalType": "string",
          "name": "",
          "type": "string"
        }
      ],
      "stateMutability": "view",
      "type": "function"
    },
    {
      "inputs": [],
      "name": "tokenCount",
      "outputs": [
        {
          "internalType": "uint256",
          "name": "",
          "type": "uint256"
        }
      ],
      "stateMutability": "view",
      "type": "function"
    },
    {
      "inputs": [
        {
          "internalType": "uint256",
          "name": "tokenId",
          "type": "uint256"
        }
      ],
      "name": "tokenURI",
      "outputs": [
        {
          "internalType": "string",
          "name": "",
          "type": "string"
        }
      ],
      "stateMutability": "view",
      "type": "function"
    },
    {
      "inputs": [
        {
          "internalType": "address",
          "name": "from",
          "type": "address"
        },
        {
          "internalType": "address",
          "name": "to",
          "type": "address"
        },
        {
          "internalType": "uint256",
          "name": "tokenId",
          "type": "uint256"
        }
      ],
      "name": "transferFrom",
      "outputs": [],
      "stateMutability": "nonpayable",
      "type": "function"
    }
  ],
  "bytecode": "0x60806040523480156200001157600080fd5b506040518060400160405280600981526020017f4e45585553204e465400000000000000000000000000000000000000000000008152506040518060400160405280600581526020017f4e45585553000000000000000000000000000000000000000000000000000000815250816000908051906020019062000096929190620000f9565b508060019080519060200190620000af929190620000f9565b50505033600860006101000a81548173ffffffffffffffffffffffffffffffffffffffff021916908373ffffffffffffffffffffffffffffffffffffffff1602179055506200020e565b8280546200010790620001a9565b90600052602060002090601f0160209004810192826200012b576000855562000177565b82601f106200014657805160ff191683800117855562000177565b8280016001018555821562000177579182015b828111156200017657825182559160200191906001019062000159565b5b5090506200018691906200018a565b5090565b5b80821115620001a55760008160009055506001016200018b565b5090565b60006002820490506001821680620001c257607f821691505b60208210811415620001d957620001d8620001df565b5b50919050565b7f4e487b7100000000000000000000000000000000000000000000000000000000600052602260045260246000fd5b61332c806200021e6000396000f3fe608060405234801561001057600080fd5b50600436106101165760003560e01c806395d89b41116100a2578063b88d4fde11610071578063b88d4fde146102df578063c87b56dd146102fb578063d85d3d271461032b578063e985e9c51461035b578063f70bf70f1461038b57610116565b806395d89b411461026b5780639f181b5e14610289578063a22cb465146102a7578063b3ab15fb146102c357610116565b806323b872dd116100e957806323b872dd146101b557806342842e0e146101d1578063570ca735146101ed5780636352211e1461020b57806370a082311461023b57610116565b806301ffc9a71461011b57806306fdde031461014b578063081812fc14610169578063095ea7b314610199575b600080fd5b61013560048036038101906101309190612182565b6103bb565b6040516101429190612693565b60405180910390f35b61015361049d565b60405161016091906126ae565b60405180910390f35b610183600480360381019061017e9190612215565b61052f565b604051610190919061260a565b60405180910390f35b6101b360048036038101906101ae9190612101565b6105b4565b005b6101cf60048036038101906101ca9190611ffb565b6106cc565b005b6101eb60048036038101906101e69190611ffb565b61072c565b005b6101f561074c565b604051610202919061260a565b60405180910390f35b61022560048036038101906102209190612215565b610772565b604051610232919061260a565b60405180910390f35b61025560048036038101906102509190611f96565b610824565b60405161026291906128f0565b60405180910390f35b6102736108dc565b60405161028091906126ae565b60405180910390f35b61029161096e565b60405161029e91906128f0565b60405180910390f35b6102c160048036038101906102bc91906120c5565b610974565b005b6102dd60048036038101906102d89190611f96565b61098a565b005b6102f960048036038101906102f4919061204a565b610a5e565b005b61031560048036038101906103109190612215565b610ac0565b60405161032291906126ae565b60405180910390f35b610345600480360381019061034091906121d4565b610c12565b60405161035291906128f0565b60405180910390f35b61037560048036038101906103709190611fbf565b610c4e565b6040516103829190612693565b60405180910390f35b6103a560048036038101906103a0919061213d565b610ce2565b6040516103b29190612671565b60405180910390f35b60007f80ac58cd000000000000000000000000000000000000000000000000000000007bffffffffffffffffffffffffffffffffffffffffffffffffffffffff1916827bffffffffffffffffffffffffffffffffffffffffffffffffffffffff1916148061048657507f5b5e139f000000000000000000000000000000000000000000000000000000007bffffffffffffffffffffffffffffffffffffffffffffffffffffffff1916827bffffffffffffffffffffffffffffffffffffffffffffffffffffffff1916145b80610496575061049582610fd5565b5b9050919050565b6060600080546104ac90612c23565b80601f01602080910402602001604051908101604052809291908181526020018280546104d890612c23565b80156105255780601f106104fa57610100808354040283529160200191610525565b820191906000526020600020905b81548152906001019060200180831161050857829003601f168201915b5050505050905090565b600061053a8261103f565b610579576040517f08c379a000000000000000000000000000000000000000000000000000000000815260040161057090612850565b60405180910390fd5b6004600083815260200190815260200160002060009054906101000a900473ffffffffffffffffffffffffffffffffffffffff169050919050565b60006105bf82610772565b90508073ffffffffffffffffffffffffffffffffffffffff168373ffffffffffffffffffffffffffffffffffffffff161415610630576040517f08c379a000000000000000000000000000000000000000000000000000000000815260040161062790612890565b60405180910390fd5b8073ffffffffffffffffffffffffffffffffffffffff1661064f6110ab565b73ffffffffffffffffffffffffffffffffffffffff16148061067e575061067d816106786110ab565b610c4e565b5b6106bd576040517f08c379a00000000000000000000000000000000000000000000000000000000081526004016106b490612790565b60405180910390fd5b6106c783836110b3565b505050565b6106dd6106d76110ab565b8261116c565b61071c576040517f08c379a0000000000000000000000000000000000000000000000000000000008152600401610713906128b0565b60405180910390fd5b61072783838361124a565b505050565b61074783838360405180602001604052806000815250610a5e565b505050565b600860009054906101000a900473ffffffffffffffffffffffffffffffffffffffff1681565b6000806002600084815260200190815260200160002060009054906101000a900473ffffffffffffffffffffffffffffffffffffffff169050600073ffffffffffffffffffffffffffffffffffffffff168173ffffffffffffffffffffffffffffffffffffffff16141561081b576040517f08c379a0000000000000000000000000000000000000000000000000000000008152600401610812906127d0565b60405180910390fd5b80915050919050565b60008073ffffffffffffffffffffffffffffffffffffffff168273ffffffffffffffffffffffffffffffffffffffff161415610895576040517f08c379a000000000000000000000000000000000000000000000000000000000815260040161088c906127b0565b60405180910390fd5b600360008373ffffffffffffffffffffffffffffffffffffffff1673ffffffffffffffffffffffffffffffffffffffff168152602001908152602001600020549050919050565b6060600180546108eb90612c23565b80601f016020809104026020016040519081016040528092919081815260200182805461091790612c23565b80156109645780601f1061093957610100808354040283529160200191610964565b820191906000526020600020905b81548152906001019060200180831161094757829003601f168201915b5050505050905090565b60075481565b61098661097f6110ab565b83836114b1565b5050565b600860009054906101000a900473ffffffffffffffffffffffffffffffffffffffff1673ffffffffffffffffffffffffffffffffffffffff163373ffffffffffffffffffffffffffffffffffffffff1614610a1a576040517f08c379a0000000000000000000000000000000000000000000000000000000008152600401610a11906128d0565b60405180910390fd5b80600860006101000a81548173ffffffffffffffffffffffffffffffffffffffff021916908373ffffffffffffffffffffffffffffffffffffffff16021790555050565b610a6f610a696110ab565b8361116c565b610aae576040517f08c379a0000000000000000000000000000000000000000000000000000000008152600401610aa5906128b0565b60405180910390fd5b610aba8484848461161e565b50505050565b6060610acb8261103f565b610b0a576040517f08c379a0000000000000000000000000000000000000000000000000000000008152600401610b0190612830565b60405180910390fd5b6000600660008481526020019081526020016000208054610b2a90612c23565b80601f0160208091040260200160405190810160405280929190818152602001828054610b5690612c23565b8015610ba35780601f10610b7857610100808354040283529160200191610ba3565b820191906000526020600020905b815481529060010190602001808311610b8657829003601f168201915b505050505090506000610bb461167a565b9050600081511415610bca578192505050610c0d565b600082511115610bff578082604051602001610be79291906125e6565b60405160208183030381529060405292505050610c0d565b610c0884611691565b925050505b919050565b600060076000815480929190610c2790612c86565b9190505550610c3833600754611738565b610c4460075483611756565b6007549050919050565b6000600560008473ffffffffffffffffffffffffffffffffffffffff1673ffffffffffffffffffffffffffffffffffffffff16815260200190815260200160002060008373ffffffffffffffffffffffffffffffffffffffff1673ffffffffffffffffffffffffffffffffffffffff16815260200190815260200160002060009054906101000a900460ff16905092915050565b6060600860009054906101000a900473ffffffffffffffffffffffffffffffffffffffff1673ffffffffffffffffffffffffffffffffffffffff163373ffffffffffffffffffffffffffffffffffffffff1614610d74576040517f08c379a0000000000000000000000000000000000000000000000000000000008152600401610d6b906128d0565b60405180910390fd5b60006001600754610d859190612ab2565b905060008484905067ffffffffffffffff811115610dcc577f4e487b7100000000000000000000000000000000000000000000000000000000600052604160045260246000fd5b604051908082528060200260200182016040528015610dfa5781602001602082028036833780820191505090505b50905060005b85859050811015610f8e5760076000815480929190610e1e90612c86565b9190505550610e8b868683818110610e5f577f4e487b7100000000000000000000000000000000000000000000000000000000600052603260045260246000fd5b9050602002810190610e71919061298b565b6000016020810190610e839190611f96565b600754611738565b610f33600754878784818110610eca577f4e487b7100000000000000000000000000000000000000000000000000000000600052603260045260246000fd5b9050602002810190610edc919061298b565b8060200190610eeb9190612934565b8080601f016020809104026020016040519081016040528093929190818152602001838380828437600081840152601f19601f82011690508083019250505050505050611756565b600754828281518110610f6f577f4e487b7100000000000000000000000000000000000000000000000000000000600052603260045260246000fd5b6020026020010181815250508080610f8690612c86565b915050610e00565b507f85aed37bb7cc21133f66f266fd7dd9c78412611a999a3ad78f1000382133469a82600754604051610fc292919061290b565b60405180910390a1809250505092915050565b60007f01ffc9a7000000000000000000000000000000000000000000000000000000007bffffffffffffffffffffffffffffffffffffffffffffffffffffffff1916827bffffffffffffffffffffffffffffffffffffffffffffffffffffffff1916149050919050565b60008073ffffffffffffffffffffffffffffffffffffffff166002600084815260200190815260200160002060009054906101000a900473ffffffffffffffffffffffffffffffffffffffff1673ffffffffffffffffffffffffffffffffffffffff1614159050919050565b600033905090565b816004600083815260200190815260200160002060006101000a81548173ffffffffffffffffffffffffffffffffffffffff021916908373ffffffffffffffffffffffffffffffffffffffff160217905550808273ffffffffffffffffffffffffffffffffffffffff1661112683610772565b73ffffffffffffffffffffffffffffffffffffffff167f8c5be1e5ebec7d5bd14f71427d1e84f3dd0314c0f7b2291e5b200ac8c7c3b92560405160405180910390a45050565b60006111778261103f565b6111b6576040517f08c379a00000000000000000000000000000000000000000000000000000000081526004016111ad90612770565b60405180910390fd5b60006111c183610772565b90508073ffffffffffffffffffffffffffffffffffffffff168473ffffffffffffffffffffffffffffffffffffffff16148061123057508373ffffffffffffffffffffffffffffffffffffffff166112188461052f565b73ffffffffffffffffffffffffffffffffffffffff16145b8061124157506112408185610c4e565b5b91505092915050565b8273ffffffffffffffffffffffffffffffffffffffff1661126a82610772565b73ffffffffffffffffffffffffffffffffffffffff16146112c0576040517f08c379a00000000000000000000000000000000000000000000000000000000081526004016112b7906126f0565b60405180910390fd5b600073ffffffffffffffffffffffffffffffffffffffff168273ffffffffffffffffffffffffffffffffffffffff161415611330576040517f08c379a000000000000000000000000000000000000000000000000000000000815260040161132790612730565b60405180910390fd5b61133b8383836117ca565b6113466000826110b3565b6001600360008573ffffffffffffffffffffffffffffffffffffffff1673ffffffffffffffffffffffffffffffffffffffff16815260200190815260200160002060008282546113969190612b39565b925050819055506001600360008473ffffffffffffffffffffffffffffffffffffffff1673ffffffffffffffffffffffffffffffffffffffff16815260200190815260200160002060008282546113ed9190612ab2565b92505081905550816002600083815260200190815260200160002060006101000a81548173ffffffffffffffffffffffffffffffffffffffff021916908373ffffffffffffffffffffffffffffffffffffffff160217905550808273ffffffffffffffffffffffffffffffffffffffff168473ffffffffffffffffffffffffffffffffffffffff167fddf252ad1be2c89b69c2b068fc378daa952ba7f163c4a11628f55a4df523b3ef60405160405180910390a46114ac8383836117cf565b505050565b8173ffffffffffffffffffffffffffffffffffffffff168373ffffffffffffffffffffffffffffffffffffffff161415611520576040517f08c379a000000000000000000000000000000000000000000000000000000000815260040161151790612750565b60405180910390fd5b80600560008573ffffffffffffffffffffffffffffffffffffffff1673ffffffffffffffffffffffffffffffffffffffff16815260200190815260200160002060008473ffffffffffffffffffffffffffffffffffffffff1673ffffffffffffffffffffffffffffffffffffffff16815260200190815260200160002060006101000a81548160ff0219169083151502179055508173ffffffffffffffffffffffffffffffffffffffff168373ffffffffffffffffffffffffffffffffffffffff167f17307eab39ab6107e8899845ad3d59bd9653f200f220920489ca2b5937696c31836040516116119190612693565b60405180910390a3505050565b61162984848461124a565b611635848484846117d4565b611674576040517f08c379a000000000000000000000000000000000000000000000000000000000815260040161166b906126d0565b60405180910390fd5b50505050565b606060405180602001604052806000815250905090565b606061169c8261103f565b6116db576040517f08c379a00000000000000000000000000000000000000000000000000000000081526004016116d290612870565b60405180910390fd5b60006116e561167a565b905060008151116117055760405180602001604052806000815250611730565b8061170f8461196b565b6040516020016117209291906125e6565b6040516020818303038152906040525b915050919050565b611752828260405180602001604052806000815250611b18565b5050565b61175f8261103f565b61179e576040517f08c379a0000000000000000000000000000000000000000000000000000000008152600401611795906127f0565b60405180910390fd5b806006600084815260200190815260200160002090805190602001906117c5929190611d70565b505050565b505050565b505050565b60006117f58473ffffffffffffffffffffffffffffffffffffffff16611b73565b1561195e578373ffffffffffffffffffffffffffffffffffffffff1663150b7a0261181e6110ab565b8786866040518563ffffffff1660e01b81526004016118409493929190612625565b602060405180830381600087803b15801561185a57600080fd5b505af192505050801561188b57506040513d601f19601f8201168201806040525081019061188891906121ab565b60015b61190e573d80600081146118bb576040519150601f19603f3d011682016040523d82523d6000602084013e6118c0565b606091505b50600081511415611906576040517f08c379a00000000000000000000000000000000000000000000000000000000081526004016118fd906126d0565b60405180910390fd5b805181602001fd5b63150b7a0260e01b7bffffffffffffffffffffffffffffffffffffffffffffffffffffffff1916817bffffffffffffffffffffffffffffffffffffffffffffffffffffffff191614915050611963565b600190505b949350505050565b606060008214156119b3576040518060400160405280600181526020017f30000000000000000000000000000000000000000000000000000000000000008152509050611b13565b600082905060005b600082146119e55780806119ce90612c86565b915050600a826119de9190612b08565b91506119bb565b60008167ffffffffffffffff811115611a27577f4e487b7100000000000000000000000000000000000000000000000000000000600052604160045260246000fd5b6040519080825280601f01601f191660200182016040528015611a595781602001600182028036833780820191505090505b5090505b60008514611b0c57600182611a729190612b39565b9150600a85611a819190612ccf565b6030611a8d9190612ab2565b60f81b818381518110611ac9577f4e487b7100000000000000000000000000000000000000000000000000000000600052603260045260246000fd5b60200101907effffffffffffffffffffffffffffffffffffffffffffffffffffffffffffff1916908160001a905350600a85611b059190612b08565b9450611a5d565b8093505050505b919050565b611b228383611b96565b611b2f60008484846117d4565b611b6e576040517f08c379a0000000000000000000000000000000000000000000000000000000008152600401611b65906126d0565b60405180910390fd5b505050565b6000808273ffffffffffffffffffffffffffffffffffffffff163b119050919050565b600073ffffffffffffffffffffffffffffffffffffffff168273ffffffffffffffffffffffffffffffffffffffff161415611c06576040517f08c379a0000000000000000000000000000000000000000000000000000000008152600401611bfd90612810565b60405180910390fd5b611c0f8161103f565b15611c4f576040517f08c379a0000000000000000000000000000000000000000000000000000000008152600401611c4690612710565b60405180910390fd5b611c5b600083836117ca565b6001600360008473ffffffffffffffffffffffffffffffffffffffff1673ffffffffffffffffffffffffffffffffffffffff1681526020019081526020016000206000828254611cab9190612ab2565b92505081905550816002600083815260200190815260200160002060006101000a81548173ffffffffffffffffffffffffffffffffffffffff021916908373ffffffffffffffffffffffffffffffffffffffff160217905550808273ffffffffffffffffffffffffffffffffffffffff16600073ffffffffffffffffffffffffffffffffffffffff167fddf252ad1be2c89b69c2b068fc378daa952ba7f163c4a11628f55a4df523b3ef60405160405180910390a4611d6c600083836117cf565b5050565b828054611d7c90612c23565b90600052602060002090601f016020900481019282611d9e5760008555611de5565b82601f10611db757805160ff1916838001178555611de5565b82800160010185558215611de5579182015b82811115611de4578251825591602001919060010190611dc9565b5b509050611df29190611df6565b5090565b5b80821115611e0f576000816000905550600101611df7565b5090565b6000611e26611e21846129d4565b6129af565b905082815260208101848484011115611e3e57600080fd5b611e49848285612be1565b509392505050565b6000611e64611e5f84612a05565b6129af565b905082815260208101848484011115611e7c57600080fd5b611e87848285612be1565b509392505050565b600081359050611e9e8161329a565b92915050565b60008083601f840112611eb657600080fd5b8235905067ffffffffffffffff811115611ecf57600080fd5b602083019150836020820283011115611ee757600080fd5b9250929050565b600081359050611efd816132b1565b92915050565b600081359050611f12816132c8565b92915050565b600081519050611f27816132c8565b92915050565b600082601f830112611f3e57600080fd5b8135611f4e848260208601611e13565b91505092915050565b600082601f830112611f6857600080fd5b8135611f78848260208601611e51565b91505092915050565b600081359050611f90816132df565b92915050565b600060208284031215611fa857600080fd5b6000611fb684828501611e8f565b91505092915050565b60008060408385031215611fd257600080fd5b6000611fe085828601611e8f565b9250506020611ff185828601611e8f565b9150509250929050565b60008060006060848603121561201057600080fd5b600061201e86828701611e8f565b935050602061202f86828701611e8f565b925050604061204086828701611f81565b9150509250925092565b6000806000806080858703121561206057600080fd5b600061206e87828801611e8f565b945050602061207f87828801611e8f565b935050604061209087828801611f81565b925050606085013567ffffffffffffffff8111156120ad57600080fd5b6120b987828801611f2d565b91505092959194509250565b600080604083850312156120d857600080fd5b60006120e685828601611e8f565b92505060206120f785828601611eee565b9150509250929050565b6000806040838503121561211457600080fd5b600061212285828601611e8f565b925050602061213385828601611f81565b9150509250929050565b6000806020838503121561215057600080fd5b600083013567ffffffffffffffff81111561216a57600080fd5b61217685828601611ea4565b92509250509250929050565b60006020828403121561219457600080fd5b60006121a284828501611f03565b91505092915050565b6000602082840312156121bd57600080fd5b60006121cb84828501611f18565b91505092915050565b6000602082840312156121e657600080fd5b600082013567ffffffffffffffff81111561220057600080fd5b61220c84828501611f57565b91505092915050565b60006020828403121561222757600080fd5b600061223584828501611f81565b91505092915050565b600061224a83836125c8565b60208301905092915050565b61225f81612b6d565b82525050565b600061227082612a46565b61227a8185612a74565b935061228583612a36565b8060005b838110156122b657815161229d888261223e565b97506122a883612a67565b925050600181019050612289565b5085935050505092915050565b6122cc81612b7f565b82525050565b60006122dd82612a51565b6122e78185612a85565b93506122f7818560208601612bf0565b61230081612dbc565b840191505092915050565b600061231682612a5c565b6123208185612a96565b9350612330818560208601612bf0565b61233981612dbc565b840191505092915050565b600061234f82612a5c565b6123598185612aa7565b9350612369818560208601612bf0565b80840191505092915050565b6000612382603283612a96565b915061238d82612dcd565b604082019050919050565b60006123a5602583612a96565b91506123b082612e1c565b604082019050919050565b60006123c8601c83612a96565b91506123d382612e6b565b602082019050919050565b60006123eb602483612a96565b91506123f682612e94565b604082019050919050565b600061240e601983612a96565b915061241982612ee3565b602082019050919050565b6000612431602c83612a96565b915061243c82612f0c565b604082019050919050565b6000612454603883612a96565b915061245f82612f5b565b604082019050919050565b6000612477602a83612a96565b915061248282612faa565b604082019050919050565b600061249a602983612a96565b91506124a582612ff9565b604082019050919050565b60006124bd602e83612a96565b91506124c882613048565b604082019050919050565b60006124e0602083612a96565b91506124eb82613097565b602082019050919050565b6000612503603183612a96565b915061250e826130c0565b604082019050919050565b6000612526602c83612a96565b91506125318261310f565b604082019050919050565b6000612549602f83612a96565b91506125548261315e565b604082019050919050565b600061256c602183612a96565b9150612577826131ad565b604082019050919050565b600061258f603183612a96565b915061259a826131fc565b604082019050919050565b60006125b2602783612a96565b91506125bd8261324b565b604082019050919050565b6125d181612bd7565b82525050565b6125e081612bd7565b82525050565b60006125f28285612344565b91506125fe8284612344565b91508190509392505050565b600060208201905061261f6000830184612256565b92915050565b600060808201905061263a6000830187612256565b6126476020830186612256565b61265460408301856125d7565b818103606083015261266681846122d2565b905095945050505050565b6000602082019050818103600083015261268b8184612265565b905092915050565b60006020820190506126a860008301846122c3565b92915050565b600060208201905081810360008301526126c8818461230b565b905092915050565b600060208201905081810360008301526126e981612375565b9050919050565b6000602082019050818103600083015261270981612398565b9050919050565b60006020820190508181036000830152612729816123bb565b9050919050565b60006020820190508181036000830152612749816123de565b9050919050565b6000602082019050818103600083015261276981612401565b9050919050565b6000602082019050818103600083015261278981612424565b9050919050565b600060208201905081810360008301526127a981612447565b9050919050565b600060208201905081810360008301526127c98161246a565b9050919050565b600060208201905081810360008301526127e98161248d565b9050919050565b60006020820190508181036000830152612809816124b0565b9050919050565b60006020820190508181036000830152612829816124d3565b9050919050565b60006020820190508181036000830152612849816124f6565b9050919050565b6000602082019050818103600083015261286981612519565b9050919050565b600060208201905081810360008301526128898161253c565b9050919050565b600060208201905081810360008301526128a98161255f565b9050919050565b600060208201905081810360008301526128c981612582565b9050919050565b600060208201905081810360008301526128e9816125a5565b9050919050565b600060208201905061290560008301846125d7565b92915050565b600060408201905061292060008301856125d7565b61292d60208301846125d7565b9392505050565b6000808335600160200384360303811261294d57600080fd5b80840192508235915067ffffffffffffffff82111561296b57600080fd5b60208301925060018202360383131561298357600080fd5b509250929050565b6000823560016040038336030381126129a357600080fd5b80830191505092915050565b60006129b96129ca565b90506129c58282612c55565b919050565b6000604051905090565b600067ffffffffffffffff8211156129ef576129ee612d8d565b5b6129f882612dbc565b9050602081019050919050565b600067ffffffffffffffff821115612a2057612a1f612d8d565b5b612a2982612dbc565b9050602081019050919050565b6000819050602082019050919050565b600081519050919050565b600081519050919050565b600081519050919050565b6000602082019050919050565b600082825260208201905092915050565b600082825260208201905092915050565b600082825260208201905092915050565b600081905092915050565b6000612abd82612bd7565b9150612ac883612bd7565b9250827fffffffffffffffffffffffffffffffffffffffffffffffffffffffffffffffff03821115612afd57612afc612d00565b5b828201905092915050565b6000612b1382612bd7565b9150612b1e83612bd7565b925082612b2e57612b2d612d2f565b5b828204905092915050565b6000612b4482612bd7565b9150612b4f83612bd7565b925082821015612b6257612b61612d00565b5b828203905092915050565b6000612b7882612bb7565b9050919050565b60008115159050919050565b60007fffffffff0000000000000000000000000000000000000000000000000000000082169050919050565b600073ffffffffffffffffffffffffffffffffffffffff82169050919050565b6000819050919050565b82818337600083830152505050565b60005b83811015612c0e578082015181840152602081019050612bf3565b83811115612c1d576000848401525b50505050565b60006002820490506001821680612c3b57607f821691505b60208210811415612c4f57612c4e612d5e565b5b50919050565b612c5e82612dbc565b810181811067ffffffffffffffff82111715612c7d57612c7c612d8d565b5b80604052505050565b6000612c9182612bd7565b91507fffffffffffffffffffffffffffffffffffffffffffffffffffffffffffffffff821415612cc457612cc3612d00565b5b600182019050919050565b6000612cda82612bd7565b9150612ce583612bd7565b925082612cf557612cf4612d2f565b5b828206905092915050565b7f4e487b7100000000000000000000000000000000000000000000000000000000600052601160045260246000fd5b7f4e487b7100000000000000000000000000000000000000000000000000000000600052601260045260246000fd5b7f4e487b7100000000000000000000000000000000000000000000000000000000600052602260045260246000fd5b7f4e487b7100000000000000000000000000000000000000000000000000000000600052604160045260246000fd5b6000601f19601f8301169050919050565b7f4552433732313a207472616e7366657220746f206e6f6e20455243373231526560008201527f63656976657220696d706c656d656e7465720000000000000000000000000000602082015250565b7f4552433732313a207472616e736665722066726f6d20696e636f72726563742060008201527f6f776e6572000000000000000000000000000000000000000000000000000000602082015250565b7f4552433732313a20746f6b656e20616c7265616479206d696e74656400000000600082015250565b7f4552433732313a207472616e7366657220746f20746865207a65726f2061646460008201527f7265737300000000000000000000000000000000000000000000000000000000602082015250565b7f4552433732313a20617070726f766520746f2063616c6c657200000000000000600082015250565b7f4552433732313a206f70657261746f7220717565727920666f72206e6f6e657860008201527f697374656e7420746f6b656e0000000000000000000000000000000000000000602082015250565b7f4552433732313a20617070726f76652063616c6c6572206973206e6f74206f7760008201527f6e6572206e6f7220617070726f76656420666f7220616c6c0000000000000000602082015250565b7f4552433732313a2062616c616e636520717565727920666f7220746865207a6560008201527f726f206164647265737300000000000000000000000000000000000000000000602082015250565b7f4552433732313a206f776e657220717565727920666f72206e6f6e657869737460008201527f656e7420746f6b656e0000000000000000000000000000000000000000000000602082015250565b7f45524337323155524953746f726167653a2055524920736574206f66206e6f6e60008201527f6578697374656e7420746f6b656e000000000000000000000000000000000000602082015250565b7f4552433732313a206d696e7420746f20746865207a65726f2061646472657373600082015250565b7f45524337323155524953746f726167653a2055524920717565727920666f722060008201527f6e6f6e6578697374656e7420746f6b656e000000000000000000000000000000602082015250565b7f4552433732313a20617070726f76656420717565727920666f72206e6f6e657860008201527f697374656e7420746f6b656e0000000000000000000000000000000000000000602082015250565b7f4552433732314d657461646174613a2055524920717565727920666f72206e6f60008201527f6e6578697374656e7420746f6b656e0000000000000000000000000000000000602082015250565b7f4552433732313a20617070726f76616c20746f2063757272656e74206f776e6560008201527f7200000000000000000000000000000000000000000000000000000000000000602082015250565b7f4552433732313a207472616e736665722063616c6c6572206973206e6f74206f60008201527f776e6572206e6f7220617070726f766564000000000000000000000000000000602082015250565b7f456e68616e6365644e46543a2063616c6c6572206973206e6f7420746865206f60008201527f70657261746f7200000000000000000000000000000000000000000000000000602082015250565b6132a381612b6d565b81146132ae57600080fd5b50565b6132ba81612b7f565b81146132c557600080fd5b50565b6132d181612b8b565b81146132dc57600080fd5b50565b6132e881612bd7565b81146132f357600080fd5b5056fea2646970667358221220d50a58411434423ad33a90242908ecb6a45bda72acfb824bd7c8a158aa6b61c664736f6c63430008040033",
  "linkReferences": {},
  "deployedLinkReferences": {}
}