{
  "_format": "hh-sol-artifact-1",
  "contractName": "MarketplaceWithRollup",
  "sourceName": "src/backend/contracts/MarketplaceWithRollup.sol",
  "abi": [
    {
      "inputs": [
        {
          "internalType": "uint256",
          "name": "_feePercent",
          "type": "uint256"
        },
        {
          "internalType": "address",
          "name": "_batchProcessorAddress",
          "type": "address"
        }
      ],
      "stateMutability": "nonpayable",
      "type": "constructor"
    },
    {
      "anonymous": false,
      "inputs": [
        {
          "indexed": false,
          "internalType": "bytes32",
          "name": "transactionHash",
          "type": "bytes32"
        }
      ],
      "name": "BatchedPurchase",
      "type": "event"
    },
    {
      "anonymous": false,
      "inputs": [
        {
          "indexed": false,
          "internalType": "uint256",
          "name": "itemId",
          "type": "uint256"
        },
        {
          "indexed": true,
          "internalType": "address",
          "name": "nft",
          "type": "address"
        },
        {
          "indexed": false,
          "internalType": "uint256",
          "name": "tokenId",
          "type": "uint256"
        },
        {
          "indexed": false,
          "internalType": "uint256",
          "name": "price",
          "type": "uint256"
        },
        {
          "indexed": true,
          "internalType": "address",
          "name": "seller",
          "type": "address"
        },
        {
          "indexed": true,
          "internalType": "address",
          "name": "buyer",
          "type": "address"
        }
      ],
      "name": "Bought",
      "type": "event"
    },
    {
      "anonymous": false,
      "inputs": [
        {
          "indexed": true,
          "internalType": "address",
          "name": "user",
          "type": "address"
        },
        {
          "indexed": false,
          "internalType": "uint256",
          "name": "amount",
          "type": "uint256"
        }
      ],
      "name": "Deposited",
      "type": "event"
    },
    {
      "anonymous": false,
      "inputs": [
        {
          "indexed": false,
          "internalType": "uint256",
          "name": "itemId",
          "type": "uint256"
        },
        {
          "indexed": true,
          "internalType": "address",
          "name": "nft",
          "type": "address"
        },
        {
          "indexed": false,
          "internalType": "uint256",
          "name": "tokenId",
          "type": "uint256"
        },
        {
          "indexed": false,
          "internalType": "uint256",
          "name": "price",
          "type": "uint256"
        },
        {
          "indexed": true,
          "internalType": "address",
          "name": "seller",
          "type": "address"
        }
      ],
      "name": "Offered",
      "type": "event"
    },
    {
      "anonymous": false,
      "inputs": [
        {
          "indexed": true,
          "internalType": "address",
          "name": "user",
          "type": "address"
        },
        {
          "indexed": false,
          "internalType": "uint256",
          "name": "amount",
          "type": "uint256"
        }
      ],
      "name": "Withdrawn",
      "type": "event"
    },
    {
      "inputs": [],
      "name": "batchProcessor",
      "outputs": [
        {
          "internalType": "contract BatchProcessor",
          "name": "",
          "type": "address"
        }
      ],
      "stateMutability": "view",
      "type": "function"
    },
    {
      "inputs": [
        {
          "internalType": "uint256[]",
          "name": "_itemIds",
          "type": "uint256[]"
        }
      ],
      "name": "batchPurchaseItems",
      "outputs": [],
      "stateMutability": "payable",
      "type": "function"
    },
    {
      "inputs": [],
      "name": "deposit",
      "outputs": [],
      "stateMutability": "payable",
      "type": "function"
    },
    {
      "inputs": [
        {
          "internalType": "address",
          "name": "",
          "type": "address"
        }
      ],
      "name": "deposits",
      "outputs": [
        {
          "internalType": "uint256",
          "name": "",
          "type": "uint256"
        }
      ],
      "stateMutability": "view",
      "type": "function"
    },
    {
      "inputs": [],
      "name": "feeAccount",
      "outputs": [
        {
          "internalType": "address payable",
          "name": "",
          "type": "address"
        }
      ],
      "stateMutability": "view",
      "type": "function"
    },
    {
      "inputs": [],
      "name": "feePercent",
      "outputs": [
        {
          "internalType": "uint256",
          "name": "",
          "type": "uint256"
        }
      ],
      "stateMutability": "view",
      "type": "function"
    },
    {
      "inputs": [
        {
          "internalType": "uint256",
          "name": "_itemId",
          "type": "uint256"
        }
      ],
      "name": "getTotalPrice",
      "outputs": [
        {
          "internalType": "uint256",
          "name": "",
          "type": "uint256"
        }
      ],
      "stateMutability": "view",
      "type": "function"
    },
    {
      "inputs": [],
      "name": "itemCount",
      "outputs": [
        {
          "internalType": "uint256",
          "name": "",
          "type": "uint256"
        }
      ],
      "stateMutability": "view",
      "type": "function"
    },
    {
      "inputs": [
        {
          "internalType": "uint256",
          "name": "",
          "type": "uint256"
        }
      ],
      "name": "items",
      "outputs": [
        {
          "internalType": "uint256",
          "name": "itemId",
          "type": "uint256"
        },
        {
          "internalType": "contract IERC721",
          "name": "nft",
          "type": "address"
        },
        {
          "internalType": "uint256",
          "name": "tokenId",
          "type": "uint256"
        },
        {
          "internalType": "uint256",
          "name": "price",
          "type": "uint256"
        },
        {
          "internalType": "address payable",
          "name": "seller",
          "type": "address"
        },
        {
          "internalType": "bool",
          "name": "sold",
          "type": "bool"
        }
      ],
      "stateMutability": "view",
      "type": "function"
    },
    {
      "inputs": [
        {
          "internalType": "contract IERC721",
          "name": "_nft",
          "type": "address"
        },
        {
          "internalType": "uint256",
          "name": "_tokenId",
          "type": "uint256"
        },
        {
          "internalType": "uint256",
          "name": "_price",
          "type": "uint256"
        }
      ],
      "name": "makeItem",
      "outputs": [],
      "stateMutability": "nonpayable",
      "type": "function"
    },
    {
      "inputs": [
        {
          "components": [
            {
              "internalType": "uint256",
              "name": "itemId",
              "type": "uint256"
            },
            {
              "internalType": "address",
              "name": "buyer",
              "type": "address"
            },
            {
              "internalType": "bytes32",
              "name": "transactionHash",
              "type": "bytes32"
            },
            {
              "internalType": "bytes",
              "name": "signature",
              "type": "bytes"
            },
            {
              "internalType": "bytes32[]",
              "name": "merkleProof",
              "type": "bytes32[]"
            }
          ],
          "internalType": "struct MarketplaceWithRollup.BatchedPurchaseParams",
          "name": "params",
          "type": "tuple"
        }
      ],
      "name": "processBatchedPurchase",
      "outputs": [],
      "stateMutability": "nonpayable",
      "type": "function"
    },
    {
      "inputs": [
        {
          "internalType": "bytes32",
          "name": "",
          "type": "bytes32"
        }
      ],
      "name": "processedTransactions",
      "outputs": [
        {
          "internalType": "bool",
          "name": "",
          "type": "bool"
        }
      ],
      "stateMutability": "view",
      "type": "function"
    },
    {
      "inputs": [
        {
          "internalType": "uint256",
          "name": "_itemId",
          "type": "uint256"
        }
      ],
      "name": "purchaseItem",
      "outputs": [],
      "stateMutability": "payable",
      "type": "function"
    },
    {
      "inputs": [
        {
          "internalType": "uint256",
          "name": "_amount",
          "type": "uint256"
        }
      ],
      "name": "withdraw",
      "outputs": [],
      "stateMutability": "nonpayable",
      "type": "function"
    }
  ],
  "bytecode": "0x60c06040523480156200001157600080fd5b50604051620033ed380380620033ed8339818101604052810190620000379190620000f5565b60016000819055503373ffffffffffffffffffffffffffffffffffffffff1660808173ffffffffffffffffffffffffffffffffffffffff1660601b815250508160a0818152505080600260006101000a81548173ffffffffffffffffffffffffffffffffffffffff021916908373ffffffffffffffffffffffffffffffffffffffff1602179055505050620001a8565b600081519050620000d88162000174565b92915050565b600081519050620000ef816200018e565b92915050565b600080604083850312156200010957600080fd5b60006200011985828601620000de565b92505060206200012c85828601620000c7565b9150509250929050565b600062000143826200014a565b9050919050565b600073ffffffffffffffffffffffffffffffffffffffff82169050919050565b6000819050919050565b6200017f8162000136565b81146200018b57600080fd5b50565b62000199816200016a565b8114620001a557600080fd5b50565b60805160601c60a051613200620001ed60003960008181610a680152610dfc01526000818161050c0152818161098a015281816110c801526118bd01526132006000f3fe6080604052600436106100dd5760003560e01c8063bfb231d21161007f578063d0e30db011610059578063d0e30db0146102b8578063d38ea5bf146102c2578063fa00afc7146102de578063fc7e286d14610307576100dd565b8063bfb231d214610210578063c05b561114610252578063ca7dd3751461027b576100dd565b80636bfb0d01116100bb5780636bfb0d01146101525780637fd6f15c1461017d578063a0af698b146101a8578063ac2e4936146101d3576100dd565b80632e1a7d4d146100e257806365e17c9d1461010b57806367c13eed14610136575b600080fd5b3480156100ee57600080fd5b50610109600480360381019061010491906122cf565b610344565b005b34801561011757600080fd5b5061012061050a565b60405161012d91906126cc565b60405180910390f35b610150600480360381019061014b91906121a8565b61052e565b005b34801561015e57600080fd5b50610167610a60565b60405161017491906129c6565b60405180910390f35b34801561018957600080fd5b50610192610a66565b60405161019f91906129c6565b60405180910390f35b3480156101b457600080fd5b506101bd610a8a565b6040516101ca91906127cb565b60405180910390f35b3480156101df57600080fd5b506101fa60048036038101906101f59190612216565b610ab0565b6040516102079190612750565b60405180910390f35b34801561021c57600080fd5b50610237600480360381019061023291906122cf565b610ad0565b604051610249969594939291906129e1565b60405180910390f35b34801561025e57600080fd5b506102796004803603810190610274919061228e565b610b59565b005b34801561028757600080fd5b506102a2600480360381019061029d91906122cf565b610df6565b6040516102af91906129c6565b60405180910390f35b6102c0610e59565b005b6102dc60048036038101906102d791906122cf565b610eff565b005b3480156102ea57600080fd5b506103056004803603810190610300919061223f565b6112cd565b005b34801561031357600080fd5b5061032e6004803603810190610329919061217f565b61159f565b60405161033b91906129c6565b60405180910390f35b6002600054141561038a576040517f08c379a0000000000000000000000000000000000000000000000000000000008152600401610381906129a6565b60405180910390fd5b600260008190555080600560003373ffffffffffffffffffffffffffffffffffffffff1673ffffffffffffffffffffffffffffffffffffffff168152602001908152602001600020541015610414576040517f08c379a000000000000000000000000000000000000000000000000000000000815260040161040b90612986565b60405180910390fd5b80600560003373ffffffffffffffffffffffffffffffffffffffff1673ffffffffffffffffffffffffffffffffffffffff16815260200190815260200160002060008282546104639190612c35565b925050819055503373ffffffffffffffffffffffffffffffffffffffff166108fc829081150290604051600060405180830381858888f193505050501580156104b0573d6000803e3d6000fd5b503373ffffffffffffffffffffffffffffffffffffffff167f7084f5476618d8e60b11ef0d7d3f06914655adb8793e28ff7f018d4c76d505d5826040516104f791906129c6565b60405180910390a2600160008190555050565b7f000000000000000000000000000000000000000000000000000000000000000081565b60026000541415610574576040517f08c379a000000000000000000000000000000000000000000000000000000000815260040161056b906129a6565b60405180910390fd5b60026000819055506000805b838390508110156106ae5760008484838181106105c6577f4e487b7100000000000000000000000000000000000000000000000000000000600052603260045260246000fd5b9050602002013590506000811180156105e157506001548111155b610620576040517f08c379a000000000000000000000000000000000000000000000000000000000815260040161061790612906565b60405180910390fd5b6004600082815260200190815260200160002060040160149054906101000a900460ff1615610684576040517f08c379a000000000000000000000000000000000000000000000000000000000815260040161067b90612826565b60405180910390fd5b61068d81610df6565b836106989190612b54565b92505080806106a690612d43565b915050610580565b50803410156106f2576040517f08c379a00000000000000000000000000000000000000000000000000000000081526004016106e9906128c6565b60405180910390fd5b60005b8383905081101561096357600084848381811061073b577f4e487b7100000000000000000000000000000000000000000000000000000000600052603260045260246000fd5b90506020020135905060006004600083815260200190815260200160002090508060040160009054906101000a900473ffffffffffffffffffffffffffffffffffffffff1673ffffffffffffffffffffffffffffffffffffffff166108fc82600301549081150290604051600060405180830381858888f193505050501580156107c9573d6000803e3d6000fd5b5060018160040160146101000a81548160ff0219169083151502179055508060010160009054906101000a900473ffffffffffffffffffffffffffffffffffffffff1673ffffffffffffffffffffffffffffffffffffffff166323b872dd303384600201546040518463ffffffff1660e01b815260040161084c939291906126e7565b600060405180830381600087803b15801561086657600080fd5b505af115801561087a573d6000803e3d6000fd5b505050503373ffffffffffffffffffffffffffffffffffffffff168160040160009054906101000a900473ffffffffffffffffffffffffffffffffffffffff1673ffffffffffffffffffffffffffffffffffffffff168260010160009054906101000a900473ffffffffffffffffffffffffffffffffffffffff1673ffffffffffffffffffffffffffffffffffffffff167f8b4c9c8a607d67b321582dd8461041b1dc2ceeca70c8b7f37f8e02095cf2e76d858560020154866003015460405161094693929190612a42565b60405180910390a45050808061095b90612d43565b9150506106f5565b50600081346109729190612c35565b8261097d9190612c35565b905060008111156109f0577f000000000000000000000000000000000000000000000000000000000000000073ffffffffffffffffffffffffffffffffffffffff166108fc829081150290604051600060405180830381858888f193505050501580156109ee573d6000803e3d6000fd5b505b600082346109fe9190612c35565b90506000811115610a51573373ffffffffffffffffffffffffffffffffffffffff166108fc829081150290604051600060405180830381858888f19350505050158015610a4f573d6000803e3d6000fd5b505b50505060016000819055505050565b60015481565b7f000000000000000000000000000000000000000000000000000000000000000081565b600260009054906101000a900473ffffffffffffffffffffffffffffffffffffffff1681565b60036020528060005260406000206000915054906101000a900460ff1681565b60046020528060005260406000206000915090508060000154908060010160009054906101000a900473ffffffffffffffffffffffffffffffffffffffff16908060020154908060030154908060040160009054906101000a900473ffffffffffffffffffffffffffffffffffffffff16908060040160149054906101000a900460ff16905086565b60026000541415610b9f576040517f08c379a0000000000000000000000000000000000000000000000000000000008152600401610b96906129a6565b60405180910390fd5b6002600081905550600360008260400135815260200190815260200160002060009054906101000a900460ff1615610c0c576040517f08c379a0000000000000000000000000000000000000000000000000000000008152600401610c0390612966565b60405180910390fd5b60008160000135826020016020810190610c26919061217f565b8360400135604051602001610c3d93929190612663565b604051602081830303815290604052805190602001209050600260009054906101000a900473ffffffffffffffffffffffffffffffffffffffff1673ffffffffffffffffffffffffffffffffffffffff1663186393ab838060800190610ca39190612a79565b846040518463ffffffff1660e01b8152600401610cc29392919061271e565b60206040518083038186803b158015610cda57600080fd5b505afa158015610cee573d6000803e3d6000fd5b505050506040513d601f19601f82011682018060405250810190610d1291906121ed565b610d51576040517f08c379a0000000000000000000000000000000000000000000000000000000008152600401610d4890612926565b60405180910390fd5b610d86826020016020810190610d67919061217f565b83600001358460400135858060600190610d819190612ad0565b6115b7565b610dc5576040517f08c379a0000000000000000000000000000000000000000000000000000000008152600401610dbc90612806565b60405180910390fd5b610dea8260000135836020016020810190610de0919061217f565b846040013561168a565b50600160008190555050565b600060647f00000000000000000000000000000000000000000000000000000000000000006064610e279190612b54565b6004600085815260200190815260200160002060030154610e489190612bdb565b610e529190612baa565b9050919050565b34600560003373ffffffffffffffffffffffffffffffffffffffff1673ffffffffffffffffffffffffffffffffffffffff1681526020019081526020016000206000828254610ea89190612b54565b925050819055503373ffffffffffffffffffffffffffffffffffffffff167f2da466a7b24304f47e87fa2e1e5a81b9831ce54fec19055ce277ca2f39ba42c434604051610ef591906129c6565b60405180910390a2565b60026000541415610f45576040517f08c379a0000000000000000000000000000000000000000000000000000000008152600401610f3c906129a6565b60405180910390fd5b60026000819055506000610f5882610df6565b90506000600460008481526020019081526020016000209050600083118015610f8357506001548311155b610fc2576040517f08c379a0000000000000000000000000000000000000000000000000000000008152600401610fb990612906565b60405180910390fd5b81341015611005576040517f08c379a0000000000000000000000000000000000000000000000000000000008152600401610ffc906128a6565b60405180910390fd5b8060040160149054906101000a900460ff1615611057576040517f08c379a000000000000000000000000000000000000000000000000000000000815260040161104e90612826565b60405180910390fd5b8060040160009054906101000a900473ffffffffffffffffffffffffffffffffffffffff1673ffffffffffffffffffffffffffffffffffffffff166108fc82600301549081150290604051600060405180830381858888f193505050501580156110c5573d6000803e3d6000fd5b507f000000000000000000000000000000000000000000000000000000000000000073ffffffffffffffffffffffffffffffffffffffff166108fc8260030154846111109190612c35565b9081150290604051600060405180830381858888f1935050505015801561113b573d6000803e3d6000fd5b5060018160040160146101000a81548160ff0219169083151502179055508060010160009054906101000a900473ffffffffffffffffffffffffffffffffffffffff1673ffffffffffffffffffffffffffffffffffffffff166323b872dd303384600201546040518463ffffffff1660e01b81526004016111be939291906126e7565b600060405180830381600087803b1580156111d857600080fd5b505af11580156111ec573d6000803e3d6000fd5b505050503373ffffffffffffffffffffffffffffffffffffffff168160040160009054906101000a900473ffffffffffffffffffffffffffffffffffffffff1673ffffffffffffffffffffffffffffffffffffffff168260010160009054906101000a900473ffffffffffffffffffffffffffffffffffffffff1673ffffffffffffffffffffffffffffffffffffffff167f8b4c9c8a607d67b321582dd8461041b1dc2ceeca70c8b7f37f8e02095cf2e76d86856002015486600301546040516112b893929190612a42565b60405180910390a45050600160008190555050565b60026000541415611313576040517f08c379a000000000000000000000000000000000000000000000000000000000815260040161130a906129a6565b60405180910390fd5b60026000819055506000811161135e576040517f08c379a000000000000000000000000000000000000000000000000000000000815260040161135590612866565b60405180910390fd5b6001600081548092919061137190612d43565b91905055508273ffffffffffffffffffffffffffffffffffffffff166323b872dd3330856040518463ffffffff1660e01b81526004016113b3939291906126e7565b600060405180830381600087803b1580156113cd57600080fd5b505af11580156113e1573d6000803e3d6000fd5b505050506040518060c0016040528060015481526020018473ffffffffffffffffffffffffffffffffffffffff1681526020018381526020018281526020013373ffffffffffffffffffffffffffffffffffffffff168152602001600015158152506004600060015481526020019081526020016000206000820151816000015560208201518160010160006101000a81548173ffffffffffffffffffffffffffffffffffffffff021916908373ffffffffffffffffffffffffffffffffffffffff160217905550604082015181600201556060820151816003015560808201518160040160006101000a81548173ffffffffffffffffffffffffffffffffffffffff021916908373ffffffffffffffffffffffffffffffffffffffff16021790555060a08201518160040160146101000a81548160ff0219169083151502179055509050503373ffffffffffffffffffffffffffffffffffffffff168373ffffffffffffffffffffffffffffffffffffffff167f655a0cf9c8db81512be9a76dc1c5ae5380b8816ce6ad659cd61b715e2999d59a600154858560405161158a93929190612a42565b60405180910390a36001600081905550505050565b60056020528060005260406000206000915090505481565b60008085856040516020016115cd9291906126a0565b60405160208183030381529060405280519060200120905060006115f082611b1a565b9050600061164b86868080601f016020809104026020016040519081016040528093929190818152602001838380828437600081840152601f19601f8201169050808301925050505050505083611b4a90919063ffffffff16565b90508873ffffffffffffffffffffffffffffffffffffffff168173ffffffffffffffffffffffffffffffffffffffff1614935050505095945050505050565b600060046000858152602001908152602001600020905060006116ac85610df6565b90506000851180156116c057506001548511155b6116ff576040517f08c379a00000000000000000000000000000000000000000000000000000000081526004016116f690612906565b60405180910390fd5b80600560008673ffffffffffffffffffffffffffffffffffffffff1673ffffffffffffffffffffffffffffffffffffffff168152602001908152602001600020541015611781576040517f08c379a000000000000000000000000000000000000000000000000000000000815260040161177890612886565b60405180910390fd5b8160040160149054906101000a900460ff16156117d3576040517f08c379a00000000000000000000000000000000000000000000000000000000081526004016117ca90612826565b60405180910390fd5b80600560008673ffffffffffffffffffffffffffffffffffffffff1673ffffffffffffffffffffffffffffffffffffffff16815260200190815260200160002060008282546118229190612c35565b925050819055508160030154600560008460040160009054906101000a900473ffffffffffffffffffffffffffffffffffffffff1673ffffffffffffffffffffffffffffffffffffffff1673ffffffffffffffffffffffffffffffffffffffff16815260200190815260200160002060008282546118a09190612b54565b925050819055508160030154816118b79190612c35565b600560007f000000000000000000000000000000000000000000000000000000000000000073ffffffffffffffffffffffffffffffffffffffff1673ffffffffffffffffffffffffffffffffffffffff16815260200190815260200160002060008282546119259190612b54565b9250508190555060018260040160146101000a81548160ff0219169083151502179055508160010160009054906101000a900473ffffffffffffffffffffffffffffffffffffffff1673ffffffffffffffffffffffffffffffffffffffff166323b872dd308685600201546040518463ffffffff1660e01b81526004016119ae939291906126e7565b600060405180830381600087803b1580156119c857600080fd5b505af11580156119dc573d6000803e3d6000fd5b5050505060016003600085815260200190815260200160002060006101000a81548160ff0219169083151502179055508373ffffffffffffffffffffffffffffffffffffffff168260040160009054906101000a900473ffffffffffffffffffffffffffffffffffffffff1673ffffffffffffffffffffffffffffffffffffffff168360010160009054906101000a900473ffffffffffffffffffffffffffffffffffffffff1673ffffffffffffffffffffffffffffffffffffffff167f8b4c9c8a607d67b321582dd8461041b1dc2ceeca70c8b7f37f8e02095cf2e76d8886600201548760030154604051611ad493929190612a42565b60405180910390a47f644cd9ce46a1e175b27076bd3dcb419af56c4dfbd5c786a6fd7776750b6a510983604051611b0b919061276b565b60405180910390a15050505050565b600081604051602001611b2d919061263d565b604051602081830303815290604052805190602001209050919050565b6000806000611b598585611b71565b91509150611b6681611bf4565b819250505092915050565b600080604183511415611bb35760008060006020860151925060408601519150606086015160001a9050611ba787828585611f45565b94509450505050611bed565b604083511415611be4576000806020850151915060408501519050611bd9868383612052565b935093505050611bed565b60006002915091505b9250929050565b60006004811115611c2e577f4e487b7100000000000000000000000000000000000000000000000000000000600052602160045260246000fd5b816004811115611c67577f4e487b7100000000000000000000000000000000000000000000000000000000600052602160045260246000fd5b1415611c7257611f42565b60016004811115611cac577f4e487b7100000000000000000000000000000000000000000000000000000000600052602160045260246000fd5b816004811115611ce5577f4e487b7100000000000000000000000000000000000000000000000000000000600052602160045260246000fd5b1415611d26576040517f08c379a0000000000000000000000000000000000000000000000000000000008152600401611d1d906127e6565b60405180910390fd5b60026004811115611d60577f4e487b7100000000000000000000000000000000000000000000000000000000600052602160045260246000fd5b816004811115611d99577f4e487b7100000000000000000000000000000000000000000000000000000000600052602160045260246000fd5b1415611dda576040517f08c379a0000000000000000000000000000000000000000000000000000000008152600401611dd190612846565b60405180910390fd5b60036004811115611e14577f4e487b7100000000000000000000000000000000000000000000000000000000600052602160045260246000fd5b816004811115611e4d577f4e487b7100000000000000000000000000000000000000000000000000000000600052602160045260246000fd5b1415611e8e576040517f08c379a0000000000000000000000000000000000000000000000000000000008152600401611e85906128e6565b60405180910390fd5b600480811115611ec7577f4e487b7100000000000000000000000000000000000000000000000000000000600052602160045260246000fd5b816004811115611f00577f4e487b7100000000000000000000000000000000000000000000000000000000600052602160045260246000fd5b1415611f41576040517f08c379a0000000000000000000000000000000000000000000000000000000008152600401611f3890612946565b60405180910390fd5b5b50565b6000807f7fffffffffffffffffffffffffffffff5d576e7357a4501ddfe92f46681b20a08360001c1115611f80576000600391509150612049565b601b8560ff1614158015611f985750601c8560ff1614155b15611faa576000600491509150612049565b600060018787878760405160008152602001604052604051611fcf9493929190612786565b6020604051602081039080840390855afa158015611ff1573d6000803e3d6000fd5b505050602060405103519050600073ffffffffffffffffffffffffffffffffffffffff168173ffffffffffffffffffffffffffffffffffffffff16141561204057600060019250925050612049565b80600092509250505b94509492505050565b60008060007f7fffffffffffffffffffffffffffffffffffffffffffffffffffffffffffffff60001b841690506000601b60ff8660001c901c6120959190612b54565b90506120a387828885611f45565b935093505050935093915050565b6000813590506120c081613157565b92915050565b60008083601f8401126120d857600080fd5b8235905067ffffffffffffffff8111156120f157600080fd5b60208301915083602082028301111561210957600080fd5b9250929050565b60008151905061211f8161316e565b92915050565b60008135905061213481613185565b92915050565b6000813590506121498161319c565b92915050565b600060a0828403121561216157600080fd5b81905092915050565b600081359050612179816131b3565b92915050565b60006020828403121561219157600080fd5b600061219f848285016120b1565b91505092915050565b600080602083850312156121bb57600080fd5b600083013567ffffffffffffffff8111156121d557600080fd5b6121e1858286016120c6565b92509250509250929050565b6000602082840312156121ff57600080fd5b600061220d84828501612110565b91505092915050565b60006020828403121561222857600080fd5b600061223684828501612125565b91505092915050565b60008060006060848603121561225457600080fd5b60006122628682870161213a565b93505060206122738682870161216a565b92505060406122848682870161216a565b9150509250925092565b6000602082840312156122a057600080fd5b600082013567ffffffffffffffff8111156122ba57600080fd5b6122c68482850161214f565b91505092915050565b6000602082840312156122e157600080fd5b60006122ef8482850161216a565b91505092915050565b61230181612c7b565b82525050565b61231081612c69565b82525050565b61232761232282612c69565b612d8c565b82525050565b60006123398385612b27565b93507f07ffffffffffffffffffffffffffffffffffffffffffffffffffffffffffffff83111561236857600080fd5b602083029250612379838584612d34565b82840190509392505050565b61238e81612c8d565b82525050565b61239d81612c99565b82525050565b6123b46123af82612c99565b612d9e565b82525050565b6123c381612cec565b82525050565b6123d281612d10565b82525050565b60006123e5601883612b38565b91506123f082612e2f565b602082019050919050565b6000612408601183612b38565b915061241382612e58565b602082019050919050565b600061242b601183612b38565b915061243682612e81565b602082019050919050565b600061244e601f83612b38565b915061245982612eaa565b602082019050919050565b6000612471601c83612b49565b915061247c82612ed3565b601c82019050919050565b6000612494601f83612b38565b915061249f82612efc565b602082019050919050565b60006124b7601e83612b38565b91506124c282612f25565b602082019050919050565b60006124da603383612b38565b91506124e582612f4e565b604082019050919050565b60006124fd602383612b38565b915061250882612f9d565b604082019050919050565b6000612520602283612b38565b915061252b82612fec565b604082019050919050565b6000612543601283612b38565b915061254e8261303b565b602082019050919050565b6000612566602083612b38565b915061257182613064565b602082019050919050565b6000612589602283612b38565b91506125948261308d565b604082019050919050565b60006125ac601d83612b38565b91506125b7826130dc565b602082019050919050565b60006125cf601283612b38565b91506125da82613105565b602082019050919050565b60006125f2601f83612b38565b91506125fd8261312e565b602082019050919050565b61261181612cd5565b82525050565b61262861262382612cd5565b612dba565b82525050565b61263781612cdf565b82525050565b600061264882612464565b915061265482846123a3565b60208201915081905092915050565b600061266f8286612617565b60208201915061267f8285612316565b60148201915061268f82846123a3565b602082019150819050949350505050565b60006126ac8285612617565b6020820191506126bc82846123a3565b6020820191508190509392505050565b60006020820190506126e160008301846122f8565b92915050565b60006060820190506126fc6000830186612307565b6127096020830185612307565b6127166040830184612608565b949350505050565b6000604082019050818103600083015261273981858761232d565b90506127486020830184612394565b949350505050565b60006020820190506127656000830184612385565b92915050565b60006020820190506127806000830184612394565b92915050565b600060808201905061279b6000830187612394565b6127a8602083018661262e565b6127b56040830185612394565b6127c26060830184612394565b95945050505050565b60006020820190506127e060008301846123ba565b92915050565b600060208201905081810360008301526127ff816123d8565b9050919050565b6000602082019050818103600083015261281f816123fb565b9050919050565b6000602082019050818103600083015261283f8161241e565b9050919050565b6000602082019050818103600083015261285f81612441565b9050919050565b6000602082019050818103600083015261287f81612487565b9050919050565b6000602082019050818103600083015261289f816124aa565b9050919050565b600060208201905081810360008301526128bf816124cd565b9050919050565b600060208201905081810360008301526128df816124f0565b9050919050565b600060208201905081810360008301526128ff81612513565b9050919050565b6000602082019050818103600083015261291f81612536565b9050919050565b6000602082019050818103600083015261293f81612559565b9050919050565b6000602082019050818103600083015261295f8161257c565b9050919050565b6000602082019050818103600083015261297f8161259f565b9050919050565b6000602082019050818103600083015261299f816125c2565b9050919050565b600060208201905081810360008301526129bf816125e5565b9050919050565b60006020820190506129db6000830184612608565b92915050565b600060c0820190506129f66000830189612608565b612a0360208301886123c9565b612a106040830187612608565b612a1d6060830186612608565b612a2a60808301856122f8565b612a3760a0830184612385565b979650505050505050565b6000606082019050612a576000830186612608565b612a646020830185612608565b612a716040830184612608565b949350505050565b60008083356001602003843603038112612a9257600080fd5b80840192508235915067ffffffffffffffff821115612ab057600080fd5b602083019250602082023603831315612ac857600080fd5b509250929050565b60008083356001602003843603038112612ae957600080fd5b80840192508235915067ffffffffffffffff821115612b0757600080fd5b602083019250600182023603831315612b1f57600080fd5b509250929050565b600082825260208201905092915050565b600082825260208201905092915050565b600081905092915050565b6000612b5f82612cd5565b9150612b6a83612cd5565b9250827fffffffffffffffffffffffffffffffffffffffffffffffffffffffffffffffff03821115612b9f57612b9e612dc4565b5b828201905092915050565b6000612bb582612cd5565b9150612bc083612cd5565b925082612bd057612bcf612df3565b5b828204905092915050565b6000612be682612cd5565b9150612bf183612cd5565b9250817fffffffffffffffffffffffffffffffffffffffffffffffffffffffffffffffff0483118215151615612c2a57612c29612dc4565b5b828202905092915050565b6000612c4082612cd5565b9150612c4b83612cd5565b925082821015612c5e57612c5d612dc4565b5b828203905092915050565b6000612c7482612cb5565b9050919050565b6000612c8682612cb5565b9050919050565b60008115159050919050565b6000819050919050565b6000612cae82612c69565b9050919050565b600073ffffffffffffffffffffffffffffffffffffffff82169050919050565b6000819050919050565b600060ff82169050919050565b6000612cf782612cfe565b9050919050565b6000612d0982612cb5565b9050919050565b6000612d1b82612d22565b9050919050565b6000612d2d82612cb5565b9050919050565b82818337600083830152505050565b6000612d4e82612cd5565b91507fffffffffffffffffffffffffffffffffffffffffffffffffffffffffffffffff821415612d8157612d80612dc4565b5b600182019050919050565b6000612d9782612da8565b9050919050565b6000819050919050565b6000612db382612e22565b9050919050565b6000819050919050565b7f4e487b7100000000000000000000000000000000000000000000000000000000600052601160045260246000fd5b7f4e487b7100000000000000000000000000000000000000000000000000000000600052601260045260246000fd5b60008160601b9050919050565b7f45434453413a20696e76616c6964207369676e61747572650000000000000000600082015250565b7f696e76616c6964207369676e6174757265000000000000000000000000000000600082015250565b7f6974656d20616c726561647920736f6c64000000000000000000000000000000600082015250565b7f45434453413a20696e76616c6964207369676e6174757265206c656e67746800600082015250565b7f19457468657265756d205369676e6564204d6573736167653a0a333200000000600082015250565b7f5072696365206d7573742062652067726561746572207468616e207a65726f00600082015250565b7f62757965722068617320696e73756666696369656e74206465706f7369740000600082015250565b7f6e6f7420656e6f75676820657468657220746f20636f766572206974656d207060008201527f7269636520616e64206d61726b65742066656500000000000000000000000000602082015250565b7f6e6f7420656e6f75676820657468657220746f20636f76657220616c6c20697460008201527f656d730000000000000000000000000000000000000000000000000000000000602082015250565b7f45434453413a20696e76616c6964207369676e6174757265202773272076616c60008201527f7565000000000000000000000000000000000000000000000000000000000000602082015250565b7f6974656d20646f65736e27742065786973740000000000000000000000000000600082015250565b7f7472616e73616374696f6e206e6f7420696e2063757272656e74206261746368600082015250565b7f45434453413a20696e76616c6964207369676e6174757265202776272076616c60008201527f7565000000000000000000000000000000000000000000000000000000000000602082015250565b7f7472616e73616374696f6e20616c72656164792070726f636573736564000000600082015250565b7f696e73756666696369656e742066756e64730000000000000000000000000000600082015250565b7f5265656e7472616e637947756172643a207265656e7472616e742063616c6c00600082015250565b61316081612c69565b811461316b57600080fd5b50565b61317781612c8d565b811461318257600080fd5b50565b61318e81612c99565b811461319957600080fd5b50565b6131a581612ca3565b81146131b057600080fd5b50565b6131bc81612cd5565b81146131c757600080fd5b5056fea26469706673582212205a66f3ac068990e2b5265eb24dab635582c1bb19e04884e7cde98f4edcff5f9664736f6c63430008040033",
  "linkReferences": {},
  "deployedLinkReferences": {}
}